:020000040000fa
:080000000002040000000000f2
:020000040000fa
:04000800fa020000f8
:020000040000fa
:04000c000c030000e1
:020000040000fa
:0400100024030000c5
:020000040000fa
:0400140002030000e3
:020000040000fa
:0400180014030000cd
:020000040000fa
:04001c001c030000c1
:020000040000fa
:040020002c030000ad
:020000040000fa
:040024004e03000087
:020000040000fa
:040028004e03000083
:020000040000fa
:04002c004e0300007f
:020000040000fa
:040030004e0300007b
:020000040000fa
:040034004e03000077
:020000040000fa
:040038004e03000073
:020000040000fa
:04003c004e0300006f
:020000040000fa
:040040004e0300006b
:020000040000fa
:040044004e03000067
:020000040000fa
:040048004e03000063
:020000040000fa
:04004c004e0300005f
:020000040000fa
:040050004e0300005b
:020000040000fa
:040054004e03000057
:020000040000fa
:040058004e03000053
:020000040000fa
:04005c004e0300004f
:020000040000fa
:040060004e0300004b
:020000040000fa
:040064004e03000047
:020000040000fa
:040068004e03000043
:020000040000fa
:04006c004e0300003f
:020000040000fa
:040070004e0300003b
:020000040000fa
:040074004e03000037
:020000040000fa
:040078004e03000033
:020000040000fa
:04007c004e0300002f
:020000040000fa
:040080004e0300002b
:020000040000fa
:040084004e03000027
:020000040000fa
:040088004e03000023
:020000040000fa
:04008c004e0300001f
:020000040000fa
:040090004e0300001b
:020000040000fa
:040094004e03000017
:020000040000fa
:040098004e03000013
:020000040000fa
:04009c004e0300000f
:020000040000fa
:0400a0004e0300000b
:020000040000fa
:0400a4004e03000007
:020000040000fa
:0400a8004e03000003
:020000040000fa
:0400ac004e030000ff
:020000040000fa
:0400b0004e030000fb
:020000040000fa
:0400b4004e030000f7
:020000040000fa
:0400b8004e030000f3
:020000040000fa
:0400bc004e030000ef
:020000040000fa
:0400c0004e030000eb
:020000040000fa
:0400c4004e030000e7
:020000040000fa
:0400c8004e030000e3
:020000040000fa
:0400cc004e030000df
:020000040000fa
:0400d0004e030000db
:020000040000fa
:0400d4004e030000d7
:020000040000fa
:0400d8004e030000d3
:020000040000fa
:0400dc004e030000cf
:020000040000fa
:0400e0004e030000cb
:020000040000fa
:0400e4004e030000c7
:020000040000fa
:0400e8004e030000c3
:020000040000fa
:0400ec004e030000bf
:020000040000fa
:0400f0004e030000bb
:020000040000fa
:0400f4004e030000b7
:020000040000fa
:0400f8004e030000b3
:020000040000fa
:0400fc004e030000af
:020000040000fa
:040100004e030000aa
:020000040000fa
:040104004e030000a6
:020000040000fa
:040108004e030000a2
:020000040000fa
:04010c004e0300009e
:020000040000fa
:040110004e0300009a
:020000040000fa
:040114004e03000096
:020000040000fa
:040118004e03000092
:020000040000fa
:04011c004e0300008e
:020000040000fa
:040120004e0300008a
:020000040000fa
:040124004e03000086
:020000040000fa
:040128004e03000082
:020000040000fa
:04012c004e0300007e
:020000040000fa
:040130004e0300007a
:020000040000fa
:040134004e03000076
:020000040000fa
:040138004e03000072
:020000040000fa
:04013c004e0300006e
:020000040000fa
:040140004e0300006a
:020000040000fa
:040144004e03000066
:020000040000fa
:040148004e03000062
:020000040000fa
:04014c004e0300005e
:020000040000fa
:040150004e0300005a
:020000040000fa
:040154004e03000056
:020000040000fa
:040158004e03000052
:020000040000fa
:04015c004e0300004e
:020000040000fa
:040160004e0300004a
:020000040000fa
:040164004e03000046
:020000040000fa
:040168004e03000042
:020000040000fa
:04016c004e0300003e
:020000040000fa
:040170004e0300003a
:020000040000fa
:040174004e03000036
:020000040000fa
:040178004e03000032
:020000040000fa
:04017c004e0300002e
:020000040000fa
:040180004e0300002a
:020000040000fa
:040184004e03000026
:020000040000fa
:040188004e03000022
:020000040000fa
:04018c004e0300001e
:020000040000fa
:040190004e0300001a
:020000040000fa
:040194004e03000016
:020000040000fa
:040198004e03000012
:020000040000fa
:04019c004e0300000e
:020000040000fa
:0401a0004e0300000a
:020000040000fa
:0401a4004e03000006
:020000040000fa
:0401a8004e03000002
:020000040000fa
:0401ac004e030000fe
:020000040000fa
:0401b0004e030000fa
:020000040000fa
:0401b4004e030000f6
:020000040000fa
:0401b8004e030000f2
:020000040000fa
:0401bc004e030000ee
:020000040000fa
:0401c0004e030000ea
:020000040000fa
:0401c4004e030000e6
:020000040000fa
:0401c8004e030000e2
:020000040000fa
:0401cc004e030000de
:020000040000fa
:0401d0004e030000da
:020000040000fa
:0401d4004e030000d6
:020000040000fa
:0401d8004e030000d2
:020000040000fa
:0401dc004e030000ce
:020000040000fa
:0401e0004e030000ca
:020000040000fa
:0401e4004e030000c6
:020000040000fa
:0401e8004e030000c2
:020000040000fa
:0401ec004e030000be
:020000040000fa
:0401f0004e030000ba
:020000040000fa
:0401f4004e030000b6
:020000040000fa
:0401f8004e030000b2
:020000040000fa
:0401fc004e030000ae
:020000040000fa
:040200004e030000a9
:020000040000fa
:040204004e030000a5
:020000040000fa
:040208004e030000a1
:020000040000fa
:04020c004e0300009d
:020000040000fa
:040210004e03000099
:020000040000fa
:040214004e03000095
:020000040000fa
:040218004e03000091
:020000040000fa
:04021c004e0300008d
:020000040000fa
:040220004e03000089
:020000040000fa
:040224004e03000085
:020000040000fa
:040228004e03000081
:020000040000fa
:04022c004e0300007d
:020000040000fa
:040230004e03000079
:020000040000fa
:040234004e03000075
:020000040000fa
:040238004e03000071
:020000040000fa
:04023c004e0300006d
:020000040000fa
:040240004e03000069
:020000040000fa
:040244004e03000065
:020000040000fa
:040248004e03000061
:020000040000fa
:04024c004e0300005d
:020000040000fa
:040250004e03000059
:020000040000fa
:040254004e03000055
:020000040000fa
:040258004e03000051
:020000040000fa
:04025c004e0300004d
:020000040000fa
:040260004e03000049
:020000040000fa
:040264004e03000045
:020000040000fa
:040268004e03000041
:020000040000fa
:04026c004e0300003d
:020000040000fa
:040270004e03000039
:020000040000fa
:040274004e03000035
:020000040000fa
:040278004e03000031
:020000040000fa
:04027c004e0300002d
:020000040000fa
:040280004e03000029
:020000040000fa
:100400002f0a21000eff27000e01880000000000c7
:10041000000020000000e000020032000001200087
:100420002002880014000700240507000000e000f7
:1004300003003a00c0eb200001002000020037005a
:100440000000200001002000810f70000100320038
:100450000f000700000020000000e0000200320052
:100460000000020000000000ea0f0200000000008f
:100470000040da000000fe00e00220000000e00082
:1004800002003200002020009001880000000600d9
:10049000a1028800800478000000eb001f003700f4
:1004a000e284440054a0b4009905ba00e2844400f8
:1004b00054a0b4009906ba00e284440054a0b400e9
:1004c0000006eb00476fde00fd07b200ae018800ba
:1004d000636ce10003003a000ad801000000eb0061
:1004e0000e003700606ce10008003a00004deb00a0
:1004f0000a05e800020039003420ec000af0a000f0
:100500008b05e900f9ff3e00040037006168e10057
:10051000010032000086eb000b00070019c7ba008b
:100520000e04e0001905ba0003003a000a00e000da
:10053000dbff3a0000000600fe07b200ae028800b2
:100540008a047800f5ff37000cd0a300e20f4d00bd
:100550001c00390089027800354dba000a05e80010
:10056000020039003420ec000af0a0008b05e900fd
:100570000f003200254dba000a05e80002003900dc
:100580003420ec000af0a0008b05e90008003200de
:100590000c00e0000600320015cdba000a05e800a4
:1005a000020039003420ec000af0a0008b05e900bd
:1005b0008984e80054a0b4000b00e000e2ff3a0098
:1005c000000006009902ba00055d78008b05e9007d
:1005d000f7ff3200c82ade00055d78008b05e900d0
:1005e000f3ff32000c00e000f1ff320019ddba0029
:1005f000eeff37003600f800c028a9000000eb002d
:10060000c10607003600f800c3060700c048a9006d
:1006100010002000bc0607003600f800c068a900e2
:1006200020002000b80607003600f800c088a900a6
:1006300030002000b40607003600f800c0a8a9006a
:1006400040002000b00607003600f800c608a900e8
:1006500070002000ac0607003600f800214680003c
:1006600000022000008060000000e0000300320073
:10067000c4a8a90090002000a3060700204680001f
:10068000700060000000e00003003200c488a90090
:10069000a00020009c060700ffff37000040da00a2
:1006a0000000fe000800fa001007980021079800db
:1006b0003207980000000000111180000010200097
:1006c000008060000000e000fbff3200be009000f0
:1006d000010f78000e0037000000000011118000ab
:1006e00000102000008060000000e000fbff3200ee
:1006f0002e009000104078000000fb0020118800c0
:100700002e0090000000e800200798001e0fe9006e
:100710001e0078000000e000efff3a003e0090006d
:100720000080fa00000006000000fa00688157000f
:10073000cfb89700200621000b0007000080fa00c8
:1007400000000600d0019000028151004240a90043
:100750000300340010017800014978000208e80025
:100760000100780000000600f6874700889fbe0061
:100770008a9fbe008c9fbe008e1f78000005780007
:10078000a1b79f00020778008004eb0092023700b7
:10079000afb097008100e800a1b79f0051c2b3003d
:1007a000814f500003003a00afb097000004eb0007
:1007b00011003700ba0090000000fb000168a300a0
:1007c0000700320009017800800078000a007800f4
:1007d000dcff07000000e00005003a007e02370061
:1007e0008a00780088020700e10f40007a02320098
:1007f0008904e80078023700010078003141780070
:10080000d3c2b300834f51000c00320007003c00fc
:10081000edc15100834f51000a003200ebc141008d
:10082000834f51000d003a000800370003c3b300a6
:10083000834f510009003a00060037000830a0003d
:10084000edff37000800a000ebff37000810a00004
:10085000e9ff37000820a000e7ff37000818a300d1
:10086000010032000800a1000838a3000100320096
:100870000820a1008200fb000103b100e98f5000b5
:100880000c003e00000178008000eb00ea08b9008f
:10089000b200fb000103b10080804000020078003c
:1008a0009201fb000303b100e98f5100f7ff36000e
:1008b000060037008000eb00a3c2b300834f510055
:1008c00002003a00ce0078000000e8008005eb004e
:1008d000e2c2b300904f110008003a0008e0a00007
:1008e00064415100d04f1100020032000001780035
:1008f00006003700ce0578000000e800000178000f
:1009000008003700ea58b9008085410002007800ed
:10091000b201fb000303b100e98f5100f9ff36007b
:10092000f6ff370032407800a2b79f00c3c6b3007d
:10093000834f5000250032000f003c0032c6b30048
:10094000824f50008800320004003c000004e000a8
:10095000260232006b4151000f00370042c6b3003f
:10096000824f50001700320065414100824f500015
:1009700094003a001300370032c7b300824f500092
:100980001b00320007003c0064415100824f5000c0
:10099000100032000241e800824f500089003a0006
:1009a0000f00370052c7b300824f50008a00320058
:1009b00063414100824f500082003a00e0df9f0017
:1009c00009003700e0df9f00850037000840a000e5
:1009d000d4ff3700e0df9f000860a00080003700f0
:1009e000e0df9f000850a0000870a0007c003700e6
:1009f000e0df9f004e007800000678000000e00075
:100a000001003a006c0221000c0178000000eb00ac
:100a1000010037000000e800800141001304e000fd
:100a2000fcff3a00800678000b00e0000300320073
:100a30008d8f5500010031008b0678008005eb009a
:100a40008d8f5000010036008d85500068046400d1
:100a50002a003a00110037003a0090000068a30015
:100a60000700320009017800010220000a00780026
:100a700034ff07000000e00006003a0006003700df
:100a80008a00780000022000df010700e10f40002b
:100a9000010032008904e8008b05e9000b00e0004a
:100aa000edff3a008085eb00140037003a0090001b
:100ab0000068a300090032000c007800b000fb00c1
:100ac00000067800090178000a0078001dff070081
:100ad0000000e00008003a00080037008c007800b1
:100ae0003100fb00010678008a007800c60107008b
:100af000e10f4000010032008904e8000d00780099
:100b00008006e9000000e000e8ff3a000800e0008d
:100b1000b1013200110037003a0090000068a300d4
:100b20000700320009017800010220000a00780065
:100b300004ff07000000e00006003a00060037004e
:100b40008a00780000022000af010700e10f40009a
:100b5000010032008904e8008b05e9000b00e00089
:100b6000edff3a009c0137004e017800cf91de0086
:100b7000c81ade004818dd004812de0004027000ca
:100b8000e4df9f000848a300080032000404e000ee
:100b900006003200e14f420004003200f4df9f0003
:100ba00082e79f002d00200002003700f2df9f0047
:100bb0001d002000e2fd2f000f0141000206e800a9
:100bc00099ff3700e0df9f00ecfd2f000f06460085
:100bd0001d00200094ff3700e0df9f00080cb300e9
:100be00008017800020cb200700064000200e0000e
:100bf0000f003a000000e0000400320064075700d4
:100c00001e0678009e069000020037004e0678000f
:100c1000cfe6de00e00f5600e08f5e000c003d00e6
:100c20003800b30060061600e0861e00080037009a
:100c30000000e00004003200640757001e06780040
:100c40009e069000020037004e0678008006eb00fa
:100c50000b00e00005003a008c8576000bf0a70041
:100c60008b05ea008b05e900cf5dde008801780086
:100c7000030cb200e3b79f0000042000808f5100f6
:100c80002300320003003c000300e00008003200b3
:100c90002d003700000820006fb29700800f52002f
:100ca0000d003200000c2000800f520026003a0098
:100cb000e202210010c0b30064014100b20f5600ef
:100cc000a28f5e001f0039000040e800ea4f50008c
:100cd000f9ff3a001b00370010c0b30002012000ea
:100ce00003002000820f5600838f5e00150039003c
:100cf000441add00cc11de00830172004411dd00d6
:100d00000040e800e84f5000f6ff3a000d003700c1
:100d100010c0b3008200200003002000820f5600a4
:100d2000838f5e0007003900431add00cd11de001d
:100d3000830172004311dd000040e800eb4f5000da
:100d4000f6ff3a00e0df9f006fd997000200fb003a
:100d50008b0f500002003d00ebdf9f0003003700c7
:100d6000808f550001003d00800578000100e00003
:100d70000300320063006400010032008100e900da
:100d800008e8a300050032008b8f500002003400f9
:100d90008b805000010037008000eb00efd99700f6
:100da0000300fb000002eb00d4b79f00808f5000cf
:100db0000200340000805000d0b79f000828a30034
:100dc00040003200610164000818a3000f003200e7
:100dd0003a0090000068a30006003200b102200033
:100de0000200e000010032008180e8000901780083
:100df0000d003700b00220000200e00001003200c8
:100e00000080e8008a0078000e0037000200e00051
:100e1000100032003a0090000068a3000700320082
:100e200009017800010220000a00780045fe070051
:100e30000000e00006003a00060037008a00780053
:100e400000022000f0000700e10f40000100320026
:100e50008904e8005fb097000000e0005a0032000b
:100e6000bcb79f00cdb79f00800678003a00900085
:100e70000068a30007003200090178000103200088
:100e80000a0078002ffe07000000e00006003a008c
:100e9000060037008a00780000032000da0007000f
:100ea000e10f4000010032008904e8008d06e900ee
:100eb000eeff3a00ddb79f003fb69700cfb6970030
:100ec00041003700dfb197000300e0001a00320054
:100ed0000838a30018003a00bcb79f00cdb79f00a8
:100ee000830678003a0090000068a30007003200f3
:100ef00009017800010220000a00780011fe0700b5
:100f00000000e00006003a00060037008a00780082
:100f100000022000bc000700e10f40000100320089
:100f20008904e8008d06e900eeff3a00ddb79f0076
:100f30003fb69700cfb69700610164000818a30080
:100f40000f0032003a0090000068a3000600320053
:100f5000b10220000200e000010032008180e800c0
:100f6000090178000d003700b00220000200e00007
:100f7000010032000080e8008a0078000e0037008f
:100f80000200e000100032003a0090000068a30068
:100f90000700320009017800010220000a007800f1
:100fa000e8fd07000000e00006003a0006003700f8
:100fb0008a0078000002200093000700e10f400043
:100fc000010032008904e8000b03e900e331b900b5
:100fd000b2b79f004233dd00e0022100000343006e
:100fe0008e01780093b79f00080778000604780008
:100ff0005d0037008b05e900000420006fb2970008
:10100000800f52003900320003003c000400e00071
:10101000080032003f00370000082000efb09700c2
:10102000808f500021003200000c2000808f500083
:1010300038003a000e48a300110032001802780070
:10104000980290000401be000c00be00f4b79f009f
:1010500085bf9f00d4010700e0df9f000000fb0078
:10106000cf80de007fb297008fba97000401be00e8
:10107000dd0107000006560081865e00070037008c
:1010800018017800110009000286d800a200200093
:10109000110009000280d800e1df9f006fd997009e
:1010a0000243b000e2df9f001a0037005001210028
:1010b0000e58a3000100320040002100e10221008f
:1010c000810054000c01be008100e90003003300e0
:1010d0008301d1000281d300fbff3700ef006100e4
:1010e0000100400010407800090037000c00be00ed
:1010f0003fb297000402e900030033008100d100f1
:101100000080d300fbff3700674060000043b00061
:10111000e0df9f00ba0090006fd997000200fb004b
:101120000168a30007003200090178008000780000
:101130000a00780083fd07000000e00005003a0087
:10114000050037008a0078002f000700e10f4000fb
:10115000010032008904e8003fb2970063025200a8
:10116000b4b79f00640454000b00e000a1ff3a00f4
:101170000e0478001fb797000838a300160032004d
:101180005fb097000000e000130034000004780016
:101190003a0090000068a3000700320009017800bf
:1011a000010220000a00780066fd07000000e00050
:1011b00006003a00060037008a007800000220008e
:1011c00011000700e10f4000010032008904e8002f
:1011d0000804e900eeff3a00afb097001140780034
:1011e000e0df9f000004e00069fd3a00090078009c
:1011f0004f0778004f06be004f05be004f04be00eb
:101200006f01b10000000600889fbe000104780055
:10121000b80090008084eb000118a3003a0032006f
:10122000180190000198a30002003a000200e000bb
:1012300035003a000190a000310498008004780045
:10124000f90fb2000200e00002003a00280090000e
:10125000000c7800ea8f540005003a000178a300e2
:1012600003003a0088007800d0002000e6ff070065
:1012700018009000d8009000810f50000b00320041
:101280000000e80010049800180078000948780071
:10129000000ce80011c0b300c0092100014878002b
:1012a000ea8f540018003a000500370088007800e3
:1012b000094078001700070080047800120037000a
:1012c000380090000088a3000f0032001801900041
:1012d000a800900048009000f2fc070098009000e1
:1012e000810f500004003200380090000003b3006a
:1012f000300498008084eb000000eb00100498009c
:1013000028009000000c7800090078004f04be000f
:10131000000006000200fa00889fbe00a0ff9f00a8
:1013200001047800380090000068a30033003a0000
:10133000e200600005003a000003b30030049800aa
:10134000110498000080eb002e003700d8049000b4
:101350000900e00006003a0012002000e680570075
:1013600048009000cffc07001904980023003700c4
:10137000a80090000100e00008003a00f1092100f7
:1013800021049800010c78002100200051049800ed
:10139000110498000030a00030049800180190005b
:1013a000a800900048009000befc070028009000b4
:1013b0008080eb0011049800aff897000148780096
:1013c000000ce8002ff89700ea4f50000b003a009d
:1013d000380090000088a300080032001801900037
:1013e000a800900048009000aefc07000000eb0051
:1013f00010049800a8009000010c7800aff8970046
:101400000100fb004f04be000080fa00000006004f
:10141000889fbe008a9fbe008c1f78009600070040
:101420009d00330003866c006450e1002e00320002
:101430006420e100330032006150e1002f003200ef
:101440006120e1003100320085855500eb07b000d6
:1014500009002000080420000500370008044400ab
:1014600089844c000a0031000603430087834b0047
:101470000001530081815b00f8ff33000203be00ce
:101480000800a0000804440089844c00f6ff3900dd
:10149000c639dd0083017300010032001300200013
:1014a0008904d1000884d3000998a3000500320004
:1014b0000800a7000300a0008904d1000884d3001d
:1014c0008b05e8008904d1000884d3000001eb00fb
:1014d0000281d2002d00070001f0a1000cf0a7004e
:1014e00001f0a000750037006420e10077003200b1
:1014f0000801be000200be00f7ff37006120e100d6
:10150000720032006000b800f3ff370000002000d6
:1015100001f82700f0ff37000001be00410007007e
:101520000470a70003f0a10003f8a30013003a0021
:101530006509b10010003200090035006928e1009a
:1015400002003500010028000000050000004000f6
:10155000818048008502e900fcff3a000000060097
:10156000f88f4200050035008100d1000080d300d3
:101570008502e800fcff3a00000006008000eb0056
:10158000000005006011b8009d00370081002000b8
:10159000618055000b003d000b00200061fe2f0014
:1015a0000100e1001d0034008281710061016400ce
:1015b0008904d1000884d3000000e800faff3a0053
:1015c00071002000610064000300700002006000f0
:1015d0000900320061044400e0844c000988a50041
:1015e000050032008b05e8006808e10002003a00bf
:1015f0008904d1000884d300f20f20000258e100d2
:1016000005003d00c75ddd00f907b2008980750067
:1016100008007800000006000bf827008b00780017
:1016200000000500c70ade00f107b200f50fb200a6
:1016300008003200e1cf4200020032000170a00039
:1016400024000500810f700001003200040805002d
:1016500044000500810f700002003a0014000500ec
:101660008502e9000000400081c04800fcff3b000b
:101670000170a000240005000004be00e9ff07007f
:101680000003be000405be000200be00e5ff070027
:10169000844f7500000006000200be006450e100a7
:1016a000050036006420e100020036000968a3004e
:1016b00001003a000800be000160a0004f0678005b
:1016c0004f05be004f04be0000000600f0ff2f00d3
:1016d000f1ff2700f9ff3700889fbe008a9fbe00f8
:1016e0008c1f7800e4ff0700ebff330003866c00db
:1016f0006450e100240032006420e1002700320041
:101700006150e100220032006120e100210032003e
:101710008b854200eb07b1000134b800003ab800f5
:101720000804420089844a00013ab8000030b80039
:101730008880400009014a00040033000000400096
:1017400081804800020149008b05e900c909dd00dc
:10175000830170000100320013002000c814de0075
:101760004814dd004709de001200b200c808de00a0
:101770000884700085ff070001f0a1000cf0a700ad
:1017800001f0a000cdff37006120e100cfff320063
:101790000801be000200be00f7ff37006150e10003
:1017a000fcff3a00c9ff37006022b80006022000a3
:1017b0000000d0008180d2000482d2008582d20055
:1017c0000000a0000202520083825a000300310090
:1017d0000202420083824a000000a1000603e900e1
:1017e000f3ff3a0000000600020ab900001bb9002e
:1017f0000200b800810042008100430000000600a2
:10180000889fbe008a9fbe000082700004027100a3
:1018100004827100260032000004be000200be00f7
:101820006011b8006b092000950220000182cf00f2
:101830000a0039000541b1000082cf0007003900dd
:101840000541b1000982cf00040039000541b10013
:101850000882cf00010039000541b1000542520065
:10186000120032000a003b008281710061016400b5
:101870008100d1000080d3008984d3000884d30084
:101880008b05e8000442e800f7ff3a000700370044
:101890000804440089844c0000004800818048000e
:1018a0008b05e9000442e900f9ff3a0037ff070021
:1018b0004f05be004f04be000000060000000500fa
:020000040000fa
:1018c00043480000303d0000202500006420000057
:1018d0002020000000430000483100003d200000af
:1018e0002564000020200000200000004348000084
:1018f000323d000020250000642000002020000070
:1019000000430000483300003d2000002564000033
:0c19100020200000200a00000d00000054
:020000040000fa
:10191c000000fa00c3e8a80000000000000000006e
:10192c000080fa00000006000200fa00000f7800a8
:10193c0021028000200f2000008060001e0070003b
:10194c00200288000080fa00000006000000fa0067
:10195c0043010700f401070007000700c20107005c
:10196c0070010700eaff070000022000eeff0700ed
:10197c000080fa00000006000000fa000001eb00f5
:10198c006004200071052000237420008049780039
:10199c00814978008249780000102300203a8800a1
:1019ac004827ef004e27ef0000042000303a880053
:1019bc004420a90044c0a90044e0a9004480a90027
:1019cc000080fa00000006000000fa00003a8000d7
:1019dc000080fa00000006000200fa00faff07007f
:1019ec00000f78001e007800240007000004e000bf
:1019fc000200320000002800710007001e00780071
:101a0c002a0007000004e00002003200000024005d
:101a1c006b0007001e007800320007000004e00095
:101a2c000200320000202000650007001e00780034
:101a3c003a0007000004e000020032000008200019
:101a4c005f0007001e007800420007000004e00061
:101a5c000200320000042000590007001e0078002c
:101a6c004a0007000004e0000200320000012000e0
:101a7c00530007000080fa00000006000400fa0082
:101a8c00100798000040eb00004f78001e009000fb
:101a9c000000e00002003d0010c0b300004f7800d1
:101aac001e4078000080fa00000006000400fa00d6
:101abc00100798000040eb00004f78009e0090004b
:101acc0000002400008060000000e00002003200f2
:101adc0010c0b300004f78001e4078000080fa0060
:101aec00000006000400fa00100798000040eb000c
:101afc00004f78009e0090000020200000806000c5
:101b0c000000e0000200320010c0b300004f78006b
:101b1c001e4078000080fa00000006000400fa0065
:101b2c00100798000040eb00004f78009e009000da
:101b3c0000082000008060000000e000020032007d
:101b4c0010c0b300004f78001e4078000080fa00ef
:101b5c00000006000400fa00100798000040eb009b
:101b6c00004f78009e009000000420000080600070
:101b7c000000e0000200320010c0b300004f7800fb
:101b8c001e4078000080fa00000006000400fa00f5
:101b9c00100798000040eb00004f78001e009000ea
:101bac00700060000000e0000200320010c0b300c2
:101bbc00004f78001e4078000080fa0000000600fc
:101bcc000200fa00000f78009e80ea00003a8000c4
:101bdc0000806000003a88000080fa0000000600d7
:101bec000000fa004027ef000080fa000000060019
:101bfc000a00fa0000f9250011002000008fbe0039
:101c0c001e0078009e0090005bfe070082eb210016
:101c1c0053f82300adfe07000001be0080b2260081
:101c2c00e1e62400f7fd0700200798003107980033
:101c3c002e009000be00900034fe07004007980074
:101c4c00002cef00022cef00062cef0000192000f6
:101c5c0020608800300020002061880030002000c7
:101c6c00206288003000200020638800222cef00c6
:101c7c0023aca90011618000f03f2f0000806000b0
:101c8c0010618800422cef0043aca9001162800067
:101c9c00f03f2f000080600010628800622cef0083
:101cac0063eca80063cca80063aca90011638000ae
:101cbc00f03f2f000080600010638800212ca900e9
:101ccc00210ca90001618000f0f32f00008060005e
:101cdc0000618800200ca900412ca900410ca9002e
:101cec0001628000f0f32f00008060000062880029
:101cfc00400ca900612ca900610ca90001638000b3
:101d0c00f0f32f000080600000638800600ca900d5
:101d1c00800c200030618800800c2000306288002c
:101d2c00800c200030638800282cef00482cef003a
:101d3c00682cef00500020005061880050002000fb
:101d4c005062880050002000506388005000200032
:101d5c006061880050002000606288005000200004
:0c1d6c00606388000080fa0000000600a0
:020000040000fa
:101d78000010000002000000800000007c1000003d
:101d88002000000080000000021000000200000097
:101d980082000000ffff0000041000005200000055
:101da80082000000303132003334350036373800d5
:101db8003941420043444500460030003132330087
:101dc800343536003738390061626300646566006f
:101dd80000286e00756c6c002900000001000000ee
:101de800000a00000000640000000000e803000092
:101df800001027000000a0008601000040420f00ec
:101e08000080960098000000e1f5050000ca9a00dd
:101e18003b00000056100000260000008200000071
:101e28009d100000009d1000090000000002000045
:101e38009f100000009f10000e020100000000002b
:101e48000000000000000000060202000000000080
:101e5800561000009c1000000600000080000000e2
:041e68000000000076
:020000040000fa
:101e6c000000fa00042eef0000122000a070880081
:101e7c00f001200000708800f02d20008070880098
:101e8c000c2eef001c2eef000a2eef001a2eef0086
:101e9c00062eef00162eef00300120007070880027
:101eac0030102000f0708800113a8000f00b2000f8
:101ebc000081600060042000710520002374200064
:101ecc008049780081497800824978002136800069
:101edc0000f82f008080600090022000010070004c
:101eec00203688003134800000fc2f000080600018
:101efc000000a00030348800103a80000001780007
:101f0c000260a000600420007105200023742000f2
:101f1c008049780081497800824978000080fa0075
:101f2c00000006000000fa0080002000001188006c
:101f3c002222ef00703120004011880021e2a8001d
:101f4c002342a8000080fa00000006000000fa00fe
:101f5c000000000010118000610060000000e00033
:101f6c00fcff320010118000620060000000e000f5
:101f7c00010032002222a9003011800000407800bc
:101f8c000080fa00000006000200fa00004f780002
:101f9c000000000011118000002020000080600073
:101fac000000e000fbff3a001e80fb0020118800bf
:101fbc000080fa00000006000000fa0010118000fa
:101fcc000080fa00000006000800fa005ffe07001f
:101fdc002500070006ff070001eca8000070280090
:101fec00313920003700070001188000010f7800fc
:101ffc001118800011079800211880002107980003
:10200c0031188000310798009e1f780000c6280008
:10201c00801f7800c1f90700e48757009e009000ec
:10202c00811f7800b0c62800801f7800bbf907001c
:10203c00e4875700ae009000811f780060c728002d
:10204c00801f7800b5f90700e4875700be009000a8
:10205c00811f780010c82800801f7800aff9070096
:10206c00e4875700ddff37000000fa00c00e29009e
:10207c00001988000020200010198800e0ff2100c2
:10208c00201988003223ef003030200040198800de
:10209c002e23ef003023ef002623ef0010198000d1
:1020ac004200de007f40600000f0b7000080fa00c4
:1020bc00000006000000fa0001a8a9000080fa0048
:0420cc00000006000a
:020000040000fa
:1020d000f03fb1000180b10006003500ee030900b9
:1020e00000000000403fb1000180b100fbff3d0057
:1020f0001000b000203fb000020035000080090051
:082100000000000000000600d1
:020000040000fa
:10210800000f78009e00780011808800ffff3700dc
:102118000000fa00c007210080077800400921006c
:10212800000188000080fa00000006000000fa00a4
:082138000080fa00000006001f
:020000040000fa
:020000040005f5
:045fe000cfff0000ef
:020000040000fa
:020000040005f5
:045fe400cfff0000eb
:020000040000fa
:020000040005f5
:045fe8007fff000037
:020000040000fa
:020000040005f5
:045fec00bfff0000f3
:020000040000fa
:020000040005f5
:045ff000b9ff0000f5
:020000040000fa
:020000040005f5
:045ff400ffff0000ab
:00000001FF
