:020000040000fa
:080000000002040000000000f2
:020000040000fa
:04000800fa020000f8
:020000040000fa
:04000c000c030000e1
:020000040000fa
:0400100024030000c5
:020000040000fa
:0400140002030000e3
:020000040000fa
:0400180014030000cd
:020000040000fa
:04001c001c030000c1
:020000040000fa
:040020002c030000ad
:020000040000fa
:04002400860300004f
:020000040000fa
:04002800860300004b
:020000040000fa
:04002c008603000047
:020000040000fa
:040030008603000043
:020000040000fa
:04003400860300003f
:020000040000fa
:04003800860300003b
:020000040000fa
:04003c008603000037
:020000040000fa
:040040008603000033
:020000040000fa
:04004400860300002f
:020000040000fa
:04004800860300002b
:020000040000fa
:04004c008603000027
:020000040000fa
:040050008603000023
:020000040000fa
:04005400860300001f
:020000040000fa
:04005800860300001b
:020000040000fa
:04005c008603000017
:020000040000fa
:040060008603000013
:020000040000fa
:04006400860300000f
:020000040000fa
:04006800860300000b
:020000040000fa
:04006c008603000007
:020000040000fa
:040070008603000003
:020000040000fa
:0400740086030000ff
:020000040000fa
:0400780086030000fb
:020000040000fa
:04007c0086030000f7
:020000040000fa
:0400800086030000f3
:020000040000fa
:0400840086030000ef
:020000040000fa
:0400880086030000eb
:020000040000fa
:04008c0086030000e7
:020000040000fa
:0400900086030000e3
:020000040000fa
:0400940086030000df
:020000040000fa
:0400980086030000db
:020000040000fa
:04009c0086030000d7
:020000040000fa
:0400a00086030000d3
:020000040000fa
:0400a40086030000cf
:020000040000fa
:0400a80086030000cb
:020000040000fa
:0400ac0086030000c7
:020000040000fa
:0400b00086030000c3
:020000040000fa
:0400b40086030000bf
:020000040000fa
:0400b80086030000bb
:020000040000fa
:0400bc0086030000b7
:020000040000fa
:0400c00086030000b3
:020000040000fa
:0400c40086030000af
:020000040000fa
:0400c80086030000ab
:020000040000fa
:0400cc0086030000a7
:020000040000fa
:0400d00086030000a3
:020000040000fa
:0400d400860300009f
:020000040000fa
:0400d800860300009b
:020000040000fa
:0400dc008603000097
:020000040000fa
:0400e0008603000093
:020000040000fa
:0400e400860300008f
:020000040000fa
:0400e800860300008b
:020000040000fa
:0400ec008603000087
:020000040000fa
:0400f0008603000083
:020000040000fa
:0400f400860300007f
:020000040000fa
:0400f800860300007b
:020000040000fa
:0400fc008603000077
:020000040000fa
:040100008603000072
:020000040000fa
:04010400860300006e
:020000040000fa
:04010800860300006a
:020000040000fa
:04010c008603000066
:020000040000fa
:040110008603000062
:020000040000fa
:04011400860300005e
:020000040000fa
:04011800860300005a
:020000040000fa
:04011c008603000056
:020000040000fa
:040120008603000052
:020000040000fa
:04012400860300004e
:020000040000fa
:04012800860300004a
:020000040000fa
:04012c008603000046
:020000040000fa
:040130008603000042
:020000040000fa
:04013400860300003e
:020000040000fa
:04013800860300003a
:020000040000fa
:04013c008603000036
:020000040000fa
:040140008603000032
:020000040000fa
:04014400860300002e
:020000040000fa
:04014800860300002a
:020000040000fa
:04014c008603000026
:020000040000fa
:040150008603000022
:020000040000fa
:04015400860300001e
:020000040000fa
:04015800860300001a
:020000040000fa
:04015c008603000016
:020000040000fa
:040160008603000012
:020000040000fa
:04016400860300000e
:020000040000fa
:04016800860300000a
:020000040000fa
:04016c008603000006
:020000040000fa
:040170008603000002
:020000040000fa
:0401740086030000fe
:020000040000fa
:0401780086030000fa
:020000040000fa
:04017c0086030000f6
:020000040000fa
:0401800086030000f2
:020000040000fa
:0401840086030000ee
:020000040000fa
:0401880086030000ea
:020000040000fa
:04018c0086030000e6
:020000040000fa
:0401900086030000e2
:020000040000fa
:0401940086030000de
:020000040000fa
:0401980086030000da
:020000040000fa
:04019c0086030000d6
:020000040000fa
:0401a0004e0300000a
:020000040000fa
:0401a40086030000ce
:020000040000fa
:0401a80086030000ca
:020000040000fa
:0401ac0086030000c6
:020000040000fa
:0401b00086030000c2
:020000040000fa
:0401b40086030000be
:020000040000fa
:0401b80086030000ba
:020000040000fa
:0401bc0086030000b6
:020000040000fa
:0401c00086030000b2
:020000040000fa
:0401c40086030000ae
:020000040000fa
:0401c80086030000aa
:020000040000fa
:0401cc0086030000a6
:020000040000fa
:0401d00086030000a2
:020000040000fa
:0401d400860300009e
:020000040000fa
:0401d800860300009a
:020000040000fa
:0401dc008603000096
:020000040000fa
:0401e0008603000092
:020000040000fa
:0401e400860300008e
:020000040000fa
:0401e800860300008a
:020000040000fa
:0401ec008603000086
:020000040000fa
:0401f0008603000082
:020000040000fa
:0401f400860300007e
:020000040000fa
:0401f800860300007a
:020000040000fa
:0401fc008603000076
:020000040000fa
:040200008603000071
:020000040000fa
:04020400860300006d
:020000040000fa
:040208008603000069
:020000040000fa
:04020c008603000065
:020000040000fa
:040210008603000061
:020000040000fa
:04021400860300005d
:020000040000fa
:040218008603000059
:020000040000fa
:04021c008603000055
:020000040000fa
:040220008603000051
:020000040000fa
:04022400860300004d
:020000040000fa
:040228008603000049
:020000040000fa
:04022c008603000045
:020000040000fa
:040230008603000041
:020000040000fa
:04023400860300003d
:020000040000fa
:040238008603000039
:020000040000fa
:04023c008603000035
:020000040000fa
:040240008603000031
:020000040000fa
:04024400860300002d
:020000040000fa
:040248008603000029
:020000040000fa
:04024c008603000025
:020000040000fa
:040250008603000021
:020000040000fa
:04025400860300001d
:020000040000fa
:040258008603000019
:020000040000fa
:04025c008603000015
:020000040000fa
:040260008603000011
:020000040000fa
:04026400860300000d
:020000040000fa
:040268008603000009
:020000040000fa
:04026c008603000005
:020000040000fa
:040270008603000001
:020000040000fa
:0402740086030000fd
:020000040000fa
:0402780086030000f9
:020000040000fa
:04027c0086030000f5
:020000040000fa
:0402800086030000f1
:020000040000fa
:10040000ef2221000eff28000e01880000000000ee
:10041000000020000000e000020032000001200087
:100420002002880014000700020307000000e0001b
:1004300003003a00001321000100200002003700f1
:100440000000200001002000810f70000100320038
:100450000f000700000020000000e0000200320052
:1004600000000200000000001c0802000000000064
:100470000040da000000fe00200020000000e00044
:1004800002003200100020009001880000000600e9
:10049000a1028800800478000000eb001f003700f4
:1004a000e284440054a0b4009905ba00e2844400f8
:1004b00054a0b4009906ba00e284440054a0b400e9
:1004c0000006eb00476fde00fd07b200ae018800ba
:1004d000636ce10003003a000ad801000000eb0061
:1004e0000e003700606ce10008003a00004deb00a0
:1004f0000a05e800020039003420ec000af0a000f0
:100500008b05e900f9ff3e00040037006168e10057
:10051000010032000086eb000b00070019c7ba008b
:100520000e04e0001905ba0003003a000a00e000da
:10053000dbff3a0000000600fe07b200ae028800b2
:100540008a047800f5ff37000cd0a300e20f4d00bd
:100550001c00390089027800354dba000a05e80010
:10056000020039003420ec000af0a0008b05e900fd
:100570000f003200254dba000a05e80002003900dc
:100580003420ec000af0a0008b05e90008003200de
:100590000c00e0000600320015cdba000a05e800a4
:1005a000020039003420ec000af0a0008b05e900bd
:1005b0008984e80054a0b4000b00e000e2ff3a0098
:1005c000000006009902ba00055d78008b05e9007d
:1005d000f7ff3200c82ade00055d78008b05e900d0
:1005e000f3ff32000c00e000f1ff320019ddba0029
:1005f000eeff37003600f800c028a9000000eb002d
:10060000940807003600f80096080700c048a900c3
:10061000100020008f0807003600f800c068a9000d
:10062000200020008b0807003600f800c088a900d1
:1006300030002000870807003600f800c0a8a90095
:1006400040002000830807003600f800c608a90013
:10065000700020007f0807003600f8002146800067
:1006600000022000008060000000e0000300320073
:10067000c4a8a9009000200076080700204680004a
:10068000700060000000e00003003200c488a90090
:10069000a00020006f080700ffff37003600f800b9
:1006a000809fbe00829fbe00849fbe00869fbe00ca
:1006b0000000fa00207080004200de00614060000f
:1006c0000004a200614060000080fb006100600047
:1006d0004200dd0022708000b1ff2f008100610028
:1006e0000100700020708800ad0207000bc8a9004f
:1006f0000080fa004f03be004f02be004f01be0053
:100700004f00be003600f900004006000040da004d
:100710000000fe000800fa0010079800210798006a
:100720003207980000000000111180000010200026
:10073000008060000000e000fbff3200be0090007f
:10074000010f78000e00370000000000111180003a
:1007500000102000008060000000e000fbff32007d
:100760002e009000104078000000fb00201188004f
:100770002e0090000000e800200798001e0fe900fe
:100780001e0078000000e000efff3a003e009000fd
:100790000080fa000000060003f0a200889fbe005f
:1007a0008a9fbe008c1f78007c0107008301330004
:1007b0006450e1004f0032006420e100520032003a
:1007c00003826c0007003b000905d0000306d0003f
:1007d000820f54000c065d00020039000200320056
:1007e00089017800030678008582550004003d00e9
:1007f0000003fd008103fd008502ea008b854200b5
:10080000840f720002003b0060001000e0801800be
:100810006011b8000005eb007a28e1000a003900f9
:1008200006007800c75ddd00f707b200878075001d
:100830002d003700828171000a0178006105600097
:100840008180d1000080d3008502e900f9ff3b00e0
:10085000060440008784480002003b006004140046
:10086000e0841c000988a300070032008a8171001f
:1008700082817100610164008904d1000884d30081
:100880008b05e800170037000978a30013003a0031
:100890000b00e000130034008b05e900080444005d
:1008a00089844c000a4474000978a3000d003a00c2
:1008b0000b00e000070034008b05e9000804440049
:1008c00089844c0001003a000b0020000978a30045
:1008d000f7ff32000001eb00020037008281710057
:1008e0000a017800f20007000cf0a70001f0a00058
:1008f0003b0137006420e10002003a00838f6c0066
:100900003b0133000801be000200be003401370085
:10091000889fbe008a9fbe008c1f78001f010700c1
:100920001002200002003b0060878800230137008e
:100930008a0062006408e10002003a0060878800d3
:100940002b0137006108e100fcff32000800be0007
:10095000030478007000070001f0a10009000700ff
:1009600008f0a600040037000001be009104240036
:10097000b0fd200088ff070009f0a70001f0a200e9
:1009800017013700889fbe008a9fbe008c9fbe0063
:100990000004be00ec0007000800be0089067800d5
:1009a0006420e10008003900040032000160a0006a
:1009b00012022000628788005300370091fc230058
:1009c000b0fd20004e0037000006eb0009f0a1004a
:1009d00003f82300020020000800be00900007007a
:1009e0000600340001f82300000020000801be00ca
:1009f000490007000004be002c0020000800be00d3
:100a000093e82300320a2300850007001200340017
:100a10000801be00d1fd2300703d2b005fff0700e1
:100a20000005be00b3f32300f27a26000800be00e2
:100a3000f200070003f823000200200056ff070021
:100a40000801be0055ff07000a01be003200070082
:100a50000004be000c06e8000800be0001f0a10082
:100a600002002000039823006d0007000800be006c
:100a7000160035000801be00e00007000005be00ba
:100a800032cd2c0043fb230044ff0700809fbe00b3
:100a90001269280003d52b000a00be00d70007000a
:100aa000620f210013ef2b003cff07000a01be007c
:100ab000d20007004f01be00170007000801be006a
:100ac000ce0007000801be0034ff07000c00e00064
:100ad0000b0032000c10a70001f0a200b2fd2000b4
:100ae00093fc23006260e1000400320022a9200090
:100af00063f023000c10a70063f8230027ff070012
:100b00000df0a70001f0a2004f06be004f05be0089
:100b10004f04be0000000600889fbe008a9fbe00f2
:100b20008c1f78009d000700a400330003866c0032
:100b30006450e1002e0032006420e10033003200f6
:100b40006150e1002f0032006120e10031003200ed
:100b500085855500eb07b00009002000080420003f
:100b6000050037000804440089844c000a00310065
:100b70000603430087834b000001530081815b0023
:100b8000f8ff33000203be000800a0000804440080
:100b900089844c00f6ff3900c639dd0083017300fb
:100ba00001003200130020008904d1000884d30022
:100bb0000998a300050032000800a7000300a00068
:100bc0008904d1000884d3008b05e8008904d10092
:100bd0000884d3000001eb000281d200340007003a
:100be00001f0a1000cf0a70001f0a0007c0037008c
:100bf0006420e1007e0032000801be000200be0059
:100c0000f7ff37006120e100790032006000b80092
:100c1000f3ff37000000200001f82700f0ff370045
:100c200014002000a9003700f4ff2f00a7003700b0
:100c30000001be00440007000470a70003f0a100fb
:100c400003f8a30013003a006509b1001000320058
:100c5000090035006928e100020035000100280084
:100c60000000050000004000818048008502e90086
:100c7000fcff3a0000000600f88f42000500350036
:100c80008100d1000080d3008502e800fcff3a001b
:100c9000000006008000eb00000005004f89de0028
:100ca00082017800a40037006011b800b20037005c
:100cb00081002000618055000b003d000b002000ea
:100cc00061fe2f000100e1001d00340082817100ef
:100cd000610164008904d1000884d3000000e800a9
:100ce000faff3a0071002000610064000300700008
:100cf000020060000900320061044400e0844c00fe
:100d00000988a500050032008b05e8006808e100ad
:100d100002003a008904d1000884d300f20f2000b9
:100d20000258e10005003d00c75ddd00f907b20093
:100d30008980750008007800000006000bf8270085
:100d40008b00780000000500c70ade00f107b20042
:100d5000f50fb20008003200e1cf4200020032007d
:100d60000170a00024000500810f70000100320016
:100d70000408050044000500810f700002003a00dd
:100d8000140005008502e9000000400081c0480011
:100d9000fcff3b000170a000240005000004be0021
:100da000e9ff07000003be000405be000200be000c
:100db000e5ff0700844f7500000006000200be003a
:100dc0006450e100050036006420e10002003600b6
:100dd0000968a30001003a000800be000160a000fd
:100de0004f0678004f05be004f04be00000006000d
:100df000f0ff2f00f1ff2700f9ff3700889fbe00aa
:100e00008a9fbe008c1f7800e4ff0700ebff3300d1
:100e100003866c006450e100240032006420e1008d
:100e2000270032006150e100220032006120e10021
:100e3000210032008b854200eb07b1000134b8007d
:100e4000003ab8000804420089844a00013ab80018
:100e50000030b8008880400009014a0004003300d7
:100e60000000400081804800020149008b05e90034
:100e7000c909dd0083017000010032001300200069
:100e8000c814de004814dd004709de001200b2007d
:100e9000c808de000884700085ff070001f0a1008b
:100ea0000cf0a70001f0a000cdff37006120e100a9
:100eb000cfff32000801be000200be00f7ff37007e
:100ec0006150e100fcff3a00c9ff3700889fbe0077
:100ed0008a9fbe00841f7800b0ff07004f00780093
:100ee00011003300f0ff2f00838f6c0006003b00e1
:100ef000040565000a00a7000800370009f0a600f5
:100f00001000200008003700820f5400838f5c001f
:100f1000030039001000200001003e000000200006
:100f200009f0a7000000ea004f05be004f04be0014
:100f30000000e00000000600881f7800030478002d
:100f40000300e00007003d0060001000e080180092
:100f500060011900e081190002003b0001f02d0042
:100f6000030037000400070008f0a70001f0a0000c
:100f70004f04780000000600889fbe008a9fbe00d4
:100f800000827000040271000482710026003200a9
:100f90000004be000200be006011b8006b09200012
:100fa000950220000182cf000a0039000541b100fe
:100fb0000082cf00070039000541b1000982cf004f
:100fc000040039000541b1000882cf00010039005a
:100fd0000541b10005425200120032000a003b00f8
:100fe00082817100610164008100d1000080d30022
:100ff0008984d3000884d3008b05e8000442e8000c
:10100000f7ff3a00070037000804440089844c00c9
:1010100000004800818048008b05e9000442e90097
:10102000f9ff3a0022ff07004f05be004f04be0043
:081030000000060000000500ad
:020000040000fa
:101038000000fa00de030700d9050700c08480001d
:101048008000eb0016ff0700020020000348240080
:10105800affe0700323323003305240065ff070085
:1010680022852b00e3012400c9fd07000002be0011
:1010780000878000118780000001be000400be00c8
:101088005cff07008085880091858800d0848000f7
:101098008000eb0002ff0700020020000348240044
:1010a8009bfe0700323323003305240051ff07005d
:1010b80022852b00e3012400b5fd07000002be00d5
:1010c80000878000118780000001be000400be0078
:1010d80048ff0700a0858800b1858800e08480006b
:1010e8008000eb00eefe0700020020000348240009
:1010f80087fe070032332300330524003dff070035
:101108000002be00e0868000f18680000001be007b
:101118000400be0037ff07007082880081828800c3
:10112800f08480008000eb00ddfe07000200200054
:101138000348240076fe07003233230033052400d9
:101148002cff07000002be00208780003187800046
:101158000001be000400be0026ff0700f0818800e1
:10116800018288008085800091858000a3050700a2
:10117800a0858000b1858000a005070070828000ee
:10118800818280009d050700f08180000182800037
:101198009a050700a9ff37000000fa000018800030
:1011a800c084880010188000d0848800201880002f
:1011b800e084880030188000f08488000080fa00fd
:1011c800000006000000fa00889fbe008a9fbe004b
:1011d8008485800095858000a0858000b185800089
:1011e8000001be000400be006afd070001f0a20075
:1011f800c0858800d1858800888580009985800011
:10120800a0858000b18580000200200003f0230043
:10121800f8fe07000001be000800be005cfd0700e4
:101228000004be00c0858000d18580000200200037
:1012380003f02300effe07000001be000800be0017
:1012480053fd0700b25e200013f52300e9fe0700f6
:1012580090808800a1808800a4858000b5858000e2
:10126800c0858000d18580000001be000400be005a
:1012780047fd0700324f200053f32300ddfe07002f
:10128800b0808800c1808800f081800001828000e1
:10129800c2642a00a3f22300d6fe07000004be00a1
:1012a800c0838000cf80de007afe07000005be0004
:1012b800d1838000e083800000804000cf80de0082
:1012c80074fe07000200200003f02300c9fe070097
:1012d8000001be000a00be002dfd07000001be008f
:1012e8000800be00c3fe07003082880041828800e3
:1012f800f081800001828000d2072d0033f12300a5
:10130800bcfe07000004be00d1838000e08380009b
:1013180000805000cf80de005efe07000001be00a6
:101328000800be00b3fe0700508288006182880072
:10133800388280004982800040848000cf80de00af
:1013480054fe07000002be00108180002181800049
:101358000001be000400be00a6fe07000001be009a
:101368000800be000afd07000002be00608580007c
:10137800718580000001be000400be009dfe0700cc
:101388000002be0010818000218180000001be00a3
:101398000400be00fffc070010818800218188003e
:1013a800588280006982800040848000cf80de00ff
:1013b80038fe07000002be003081800041818000b5
:1013c8000001be000400be008afe07000001be0046
:1013d8000800be00eefc07000002be006085800029
:1013e800718580000001be000400be0081fe070078
:1013f8000002be0030818000418180000001be00f3
:101408000400be00e3fc07003081880041818800a9
:1014180094808000a58080004085800051858000f0
:101428000001be000400be0072fe07000002be00fc
:1014380010818000218180000001be000400be00f0
:10144800d4fc0700d0808800e1808800b480800048
:10145800c580800040858000518580000001be0065
:101468000400be0063fe07000002be003081800059
:10147800418180000001be000400be00c5fc0700d9
:10148800f080880001818800d4808000e580800099
:10149800b0808000c18080000001be000400be0052
:1014a80054fe07000004be00f4808000058180001f
:1014b80090808000a18080000001be000400be0072
:1014c8004cfe07000001be000800be00b0fc07008b
:1014d80002002000d341240046fe070090828800c5
:1014e800a1828800d4808000e58080009080800000
:1014f800a18080000001be000400be003dfe070080
:101508000004be00f480800005818000b080800067
:10151800c18080000001be000400be0035fe070047
:101528000001be000800be009afc0700020020006f
:10153800d33924002ffe0700b0828800c1828800ba
:10154800d0808000e1808000f480800005818000e8
:101558000001be000400be00ebfc070050818800bb
:1015680061818800508180006181800019c0b300ca
:101578006011b800aafd07000000e00001003d006e
:101588008044eb00508180006181800018c0b30066
:1015980062aa200063f023009ffd07000000e0001e
:1015a800010035000044eb0008c064000004e000be
:1015b8000200320010002000b083880050818000b3
:1015c8006181800019c0b30062aa200063f0230083
:1015d80093fd07000000e00001003d008044eb009f
:1015e800508180006181800018c0b30062aa200089
:1015f80063f8230088fd07000000e00001003500c3
:101608000044eb0008c064000004e000020032005f
:1016180020002000b0838800508180006181800014
:1016280019c0b30062aa200063f823007cfd0700fc
:101638000000e00001003d008044eb005081800084
:101648006181800018c0b30092ff200093fc230042
:1016580071fd07000000e000010035000044eb00c8
:1016680008c064000004e0000200320030002000de
:10167800b0838800508180006181800019c0b30068
:1016880092ff200093fc230065fd07000000e000a6
:1016980001003d008044eb005081800061818000a2
:1016a80018c0b30062aa2000630024005afd070096
:1016b8000000e000010035000044eb0008c06400b1
:1016c8000004e0000200320040002000b0838800df
:1016d800508180006181800019c0b30062aa200097
:1016e800630024004efd07000000e00001003d00fb
:1016f8008044eb00508180006181800018c0b300f5
:1017080002d528007302240043fd07000000e00012
:10171800010035000044eb0008c064000004e0004c
:101728000200320050002000b08388005081800001
:101738006181800019c0b30002d52800730224001b
:1017480037fd07000000e00001003d008044eb0089
:10175800508180006181800018c0b30092ff200092
:10176800930424002cfd07000000e0000100340071
:101778000044eb0008c064000004e00002003200ee
:1017880060002000b0838800508180006181800063
:1017980019c0b30092ff200093042c0020fd07001d
:1017a8000000e00001003d008044eb005081800013
:1017b8006181800018c0b30062aa200063002c0079
:1017c80015fd07000000e000010035000044eb00b3
:1017d80008c064000004e00002003200700020002d
:1017e800b0838800508180006181800019c0b300f7
:1017f80002d5280073022c0009fd07000000e00054
:1018080001003d008044eb00508180006181800030
:1018180018c0b30062aa200063002c00fefc070079
:101828000000e000010035000044eb0008c064003f
:101838000004e0000200320080002000b08388002d
:10184800508180006181800019c0b30062aa200025
:1018580063002c00f2fc07000000e00001003d00de
:101868008044eb00508180006181800018c0b30083
:1018780092ff200093fc2b00e7fc07000000e0002b
:10188800010035000044eb0008c064000004e000db
:101898000200320090002000b08388005081800050
:1018a8006181800019c0b30092ff200093fc2b00d7
:1018b800dbfc07000000e00001003d008044eb0075
:1018c800508180006181800018c0b30062aa2000a6
:1018d80063f82b00d0fc07000000e0000100350091
:1018e8000044eb0008c064000004e000020032007d
:1018f800a0002000b08388005081800061818000b2
:1019080019c0b30062aa200063f82b00c4fc0700ca
:101918000000e00001003d008044eb0050818000a1
:101928006181800018c0b30062aa200063f02b0018
:10193800b9fc07000000e000010035000044eb009e
:1019480008c064000004e00002003200b00020007b
:10195800b0838800508180006181800019c0b30085
:1019680062aa200063f02b00adfc07000000e00035
:1019780001003d008044eb005081800061818000bf
:1019880018c0b3006011b800a3fc07000000e00015
:10199800010035000044eb0008c064000004e000ca
:1019a800010032007630ef00048680001586800042
:1019b800f0818000018280000001be000400be00aa
:1019c80073fb07007081880081818800248680006d
:1019d8003586800070818000818180000001be0012
:1019e8000400be0003fd07000002be0090838000d3
:1019f800a18380000001be000400be0065fb070053
:101a08000004be00648580007585800040868000e3
:101a1800518680000001be000400be003cfc0700a7
:101a28000200200003f8230059fb07000002be0053
:101a380020868000318680000001be000400be00c0
:101a4800ecfc07000002be00d0818000e18180002c
:101a58000001be000400be00e6fc07000001be0055
:101a68000800be004bfb0700708388008183880054
:101a78007483800085838000f0818000018280006b
:101a88000001be000400be00dafc07005083880095
:101a98006183880054838000658380009082800081
:101aa800a18280000001be000400be0038fb0700d0
:101ab800f082880001838800f4828000058380001a
:101ac800808480009184800018c0b3000001be00ab
:101ad8000400be0052fc07000000e00001003c00ca
:101ae8000044eb000804e00002003200100020006f
:101af8001084880080848000918480000002be00e9
:101b080005f0a200f08280000183800018c0b300b5
:101b18000001be000400be0041fc07000000e00018
:101b280001003c000044eb000804e0000100320022
:101b38008230ef00f482800005838000808480007a
:101b48009184800019c0b3000001be000400be00eb
:101b580031fc07000000e000010035008044eb0084
:101b680080848000918480000002be0005f0a200fd
:101b7800f08280000183800018c0b3000001be001d
:101b88000400be0024fc07000000e000010035004e
:101b98000044eb0008c064000004e00002003200ca
:101ba8002084800010848800a4848000b58480008c
:101bb800b0828000c18280000001be000400be0027
:101bc800f3fa0700d0828800e1828800d48280007e
:101bd800e5828000808480009184800018c0b30072
:101be8000001be000400be000dfc07000000e0007c
:101bf80001003c000044eb000804e0000200320051
:101c080010002000f0838800808480009184800088
:101c18000002be0005f0a200d0828000e1828000b0
:101c280018c0b3000001be000400be00fcfb0700a2
:101c38000000e00001003c000044eb000804e00064
:101c4800010032007e30ef00d4828000e5828000ff
:101c5800808480009184800019c0b3000001be0018
:101c68000400be00ecfb07000000e00001003500a6
:101c78008044eb0080848000918480000002be00d4
:101c880005f0a200d0828000e182800018c0b30075
:101c98000001be000400be00dffb07000000e000fa
:101ca800010035000044eb0008c064000004e000b7
:101cb8000200320000848000f083880010848000d5
:101cc8000000a20000f0a7000000ea000000e90000
:101cd8004f00de0080407800f083800000f0a7000d
:101ce8000000ea000000e9004f00de000040780034
:101cf80000c060000004e00012003200b0838000e1
:101d080080004000e00e21000080400010007800b4
:101d180050848800b083800080004000601021005b
:101d2800008040001000780060848800b083800044
:101d380080004000e0112100008040001000780081
:101d480070848800108480000000a20000f0a700c2
:101d58000000ea000000e9004f00de008040780043
:101d6800f08380000000a20000f0a7000000ea0055
:101d78000000e9004f00de000040780000c060006d
:101d88000004e00012003200b083800080004000b0
:101d98006013210000804000100078005084880003
:101da800b083800080004000e014210000804000e3
:101db8001000780060848800b083800080004000b4
:101dc80060162100008040001000780070848800b0
:101dd8001084800000f0a7000000ea000000e9007d
:101de8004f00de0080407800f083800000f0a700fc
:101df8000000ea000000e9004f00de000040780023
:101e080000c060000004e00012003200b0838000cf
:101e180080004000e017210000804000100078009a
:101e280050848800b0838000800040006019210041
:101e3800008040001000780060848800b083800033
:101e480080004000e01a2100008040001000780067
:101e5800708488001084800000f0a7000000ea0069
:101e68000000e9004f00de0080407800f083800029
:101e78000000a20000f0a7000000ea000000e9004e
:101e88004f00de000040780000c060000004e00061
:101e980012003200b083800080004000601c2100e6
:101ea800008040001000780050848800b0838000d3
:101eb80080004000e01d21000080400010007800f4
:101ec80060848800b083800080004000601f21008b
:101ed800008040001000780070848800f081800045
:101ee8000182800010828800218288009082800010
:101ef800a18280001083880021838800b08280003e
:101f0800c18280003083880041838800108480006b
:101f180020848800f083800000848800508480003a
:101f2800c083880060848000d0838800708480002b
:101f3800e08388007083800081838000908388001c
:101f4800a18388007081800081818000d081880011
:101f5800e18188004f05be004f04be000080fa00f2
:101f6800000006000000fa0096fc07000080fa0056
:101f7800000006000000fa00c3e8a8000000000006
:101f8800000000000080fa00000006000200fa00cd
:101f9800000f780021028000200f200000806000e0
:101fa8001e007000200288000080fa000000060071
:101fb8000000fa009f0107002f0207000800070031
:101fc800f701070033010700cc010700e9ff07000c
:101fd80000022000edff07000080fa000000060064
:101fe8000000fa000001eb006004200071052000e9
:101ff800237420008049780081497800824978005c
:1020080000102300203a88004827ef004e27ef00f1
:1020180000042000303a88004420a90044c0a900e8
:1020280044e0a9004480a9000080fa0000000600ee
:102038000000fa00003a80000080fa000000060064
:102048000200fa00faff0700000f78001e0078006f
:10205800240007000004e00002003200000028000d
:10206800710007001e0078002a0007000004e00045
:1020780002003200000024006b0007001e007800f8
:10208800320007000004e0000200320000202000b7
:10209800650007001e0078003a0007000004e00011
:1020a80002003200000820005f0007001e007800d0
:1020b800420007000004e000020032000004200093
:1020c800590007001e0078004a0007000004e000dd
:1020d8000200320000012000530007000080fa00cf
:1020e800000006000400fa00100798000040eb000a
:1020f800004f78001e0090000000e00002003d0044
:1021080010c0b300004f78001e4078000080fa002d
:10211800000006000400fa00100798000040eb00d9
:10212800004f78009e0090000000240000806000ae
:102138000000e0000200320010c0b300004f780039
:102148001e4078000080fa00000006000400fa0033
:10215800100798000040eb00004f78009e009000a8
:1021680000202000008060000000e0000200320033
:1021780010c0b300004f78001e4078000080fa00bd
:10218800000006000400fa00100798000040eb0069
:10219800004f78009e00900000082000008060003a
:1021a8000000e0000200320010c0b300004f7800c9
:1021b8001e4078000080fa00000006000400fa00c3
:1021c800100798000040eb00004f78009e00900038
:1021d80000042000008060000000e00002003200df
:1021e80010c0b300004f78001e4078000080fa004d
:1021f800000006000400fa00100798000040eb00f9
:10220800004f78001e009000700060000000e000a1
:102218000200320010c0b300004f78001e40780062
:102228000080fa00000006000200fa00000f7800a3
:102238009e80ea00003a800000806000003a880032
:102248000080fa00000006000000fa004027ef00b6
:082258000080fa0000000600fe
:020000040000fa
:10226000e810000002000000800000000e120000d4
:102270002000000080000000ea10000002000000c2
:1022800082000000ffff0000ee10000020010000af
:1022900082000000010001000001000001000100b7
:1022a000000100000000000000000000000000002d
:1022b000000000000000000000000000000001001d
:1022c0000001000001000100000100000100000009
:1022d00000000000010001000000000000000000fc
:1022e00000000000000000000001000001000100eb
:1022f00000010000010001000000000000000000db
:1023000000010000000000000001000001000100c9
:1023100000000000010001000001000000000100b9
:1023200000010000000000000000000001000000ab
:10233000000000000000010000000000000001009b
:102340000001000001000000000100000100000089
:102350000000000001000100000100000100010078
:10236000000000000000000000000000000000006d
:10237000000100000000000000000000010001005a
:102380000001000001000100000100000000000049
:10239000000000000100000000000000000000003c
:1023a0000000000000000100000100000100010029
:1023b0000001000001000100000100000000000019
:1023c000000000000000000000000000010001000b
:1023d00000010000000001000001000001000100f8
:1023e00000010000010000000000000000000000eb
:1023f00000000000000000000000000000000000dd
:1024000000010000010001000001000001000100c6
:102410000000000000100000a0000000800000008c
:10242000a01000004800000082000000bd37060038
:1024300036acc500a7370a00d7233c00acc5a700bf
:1024400037000000803f0000000040000000400016
:10245000400000002041000000164400cdcccc001c
:102460003dcdcc00cc3db80040823c000060b300c4
:102470004466660094416600669441000000840052
:10248000420000000041000000e14100ec100000ab
:0c249000020000008000000000000000be
:020000040000fa
:10249c000a00fa0000f9250011002000008fbe0090
:1024ac001e0078009e009000fcf9070082eb2100d2
:1024bc0053f823004efa07000001be0080b226003c
:1024cc00e1e6240091f907002007980031079800f5
:1024dc002e009000be009000d2f907004007980033
:1024ec00002cef00022cef00062cef00001920004e
:1024fc00206088003000200020618800300020001f
:10250c00206288003000200020638800222cef001d
:10251c0023eca80023cca80023aca90011618000f7
:10252c00f03f2f000080600010618800422cef000b
:10253c0043eca80043cca80043aca9001162800076
:10254c00f03f2f000080600010628800622cef00ca
:10255c0063eca80063cca80063aca90011638000f5
:10256c00f03f2f00008060001063880000402000c6
:10257c0000618800212ca900210ca90001618000b8
:10258c00f0f32f000080600000618800200ca9008f
:10259c00412ca900410ca90001628000f0f32f002e
:1025ac000080600000628800400ca900612ca9002a
:1025bc00610ca90001638000f0f32f000080600023
:1025cc0000638800600ca900800c2000306188003a
:1025dc00800c200030628800800c20003063880062
:1025ec00282cef00482cef00682cef005000200046
:1025fc00506188005000200050628800500020007c
:10260c00506388005000200060618800500020005a
:10261c006062880050002000606388000bc8a9002d
:10262c002bc8a80001eca8000080fa0000000600ee
:10263c000000fa00042eef0000122000a0708800a9
:10264c00f001200000708800004ea900f02d200041
:10265c00807088000c2eef001c2eef000a2eef006d
:10266c001a2eef00062eef00162eef003001200080
:10267c007070880030102000f0708800113a8000d3
:10268c00f00b200000816000600420007105200028
:10269c0023742000804978008149780082497800b1
:1026ac002136800000f82f0080806000900220000e
:1026bc0001007000203688003134800000fc2f00af
:1026cc00008060000000a00030348800103a8000c8
:1026dc00000178000260a000600420007105200059
:1026ec002374200080497800814978008249780061
:1026fc000080fa00000006000000fa0080002000b4
:10270c00001188002222ef00703120004011880057
:10271c0021e2a8002342a8000080fa000000060075
:10272c000000fa0000000000101180006100600041
:10273c000000e000fcff320010118000620060001d
:10274c000000e000010032002222a90030118000bc
:10275c00004078000080fa00000006000200fa0039
:10276c00004f7800000000001111800000202000b4
:10277c00008060000000e000fbff3a001e80fb00c0
:10278c00201188000080fa00000006000000fa000a
:10279c00101180000080fa00000006000000fa0012
:1027ac00c00e290000198800002020001019880094
:1027bc00e0ff2100201988003223ef003030200088
:1027cc00401988002e23ef003023ef002623ef0062
:1027dc00101980004200de007f406000e8f0b70076
:1027ec000080fa00000006000000fa0001a8a90011
:1027fc000080fa00000006000a00fa00300798007a
:10280c00410798003e019000ce01900012079800fd
:10281c00230798000000eb00000f7800050037003c
:10282c001e80e8000000470010407800cbff070036
:10283c001e0fe8001e007800e30f5000f8ff340074
:10284c000080fa0000000600000f78009e0078005f
:10285c0051878800ffff37000000fa00e0202100bc
:10286c008007780060222100000188000080fa00b7
:10287c00000006000000fa0071438000f08f2f006a
:10288c00008060000080a000704388000080fa0087
:04289c000000060032
:020000040000fa
:020000040005f5
:045fe000cfff0000ef
:020000040000fa
:020000040005f5
:045fe400cfff0000eb
:020000040000fa
:020000040005f5
:045fe8007fff000037
:020000040000fa
:020000040005f5
:045fec00bfff0000f3
:020000040000fa
:020000040005f5
:045ff000b9ff0000f5
:020000040000fa
:020000040005f5
:045ff400ffff0000ab
:00000001FF
