:020000040000fa
:080000000002040000000000f2
:020000040000fa
:04000800fa020000f8
:020000040000fa
:04000c000c030000e1
:020000040000fa
:0400100024030000c5
:020000040000fa
:0400140002030000e3
:020000040000fa
:0400180014030000cd
:020000040000fa
:04001c001c030000c1
:020000040000fa
:040020002c030000ad
:020000040000fa
:040024004e03000087
:020000040000fa
:040028004e03000083
:020000040000fa
:04002c004e0300007f
:020000040000fa
:040030004e0300007b
:020000040000fa
:040034004e03000077
:020000040000fa
:040038004e03000073
:020000040000fa
:04003c004e0300006f
:020000040000fa
:040040004e0300006b
:020000040000fa
:040044004e03000067
:020000040000fa
:040048004e03000063
:020000040000fa
:04004c004e0300005f
:020000040000fa
:040050004e0300005b
:020000040000fa
:040054004e03000057
:020000040000fa
:040058004e03000053
:020000040000fa
:04005c004e0300004f
:020000040000fa
:040060004e0300004b
:020000040000fa
:040064004e03000047
:020000040000fa
:040068004e03000043
:020000040000fa
:04006c004e0300003f
:020000040000fa
:040070004e0300003b
:020000040000fa
:040074004e03000037
:020000040000fa
:040078004e03000033
:020000040000fa
:04007c004e0300002f
:020000040000fa
:040080004e0300002b
:020000040000fa
:040084004e03000027
:020000040000fa
:040088004e03000023
:020000040000fa
:04008c004e0300001f
:020000040000fa
:040090004e0300001b
:020000040000fa
:040094004e03000017
:020000040000fa
:040098004e03000013
:020000040000fa
:04009c004e0300000f
:020000040000fa
:0400a0004e0300000b
:020000040000fa
:0400a4004e03000007
:020000040000fa
:0400a8004e03000003
:020000040000fa
:0400ac004e030000ff
:020000040000fa
:0400b0004e030000fb
:020000040000fa
:0400b4004e030000f7
:020000040000fa
:0400b8004e030000f3
:020000040000fa
:0400bc004e030000ef
:020000040000fa
:0400c0004e030000eb
:020000040000fa
:0400c4004e030000e7
:020000040000fa
:0400c8004e030000e3
:020000040000fa
:0400cc004e030000df
:020000040000fa
:0400d0004e030000db
:020000040000fa
:0400d4004e030000d7
:020000040000fa
:0400d8004e030000d3
:020000040000fa
:0400dc004e030000cf
:020000040000fa
:0400e0004e030000cb
:020000040000fa
:0400e4004e030000c7
:020000040000fa
:0400e8004e030000c3
:020000040000fa
:0400ec004e030000bf
:020000040000fa
:0400f0004e030000bb
:020000040000fa
:0400f4004e030000b7
:020000040000fa
:0400f8004e030000b3
:020000040000fa
:0400fc004e030000af
:020000040000fa
:040100004e030000aa
:020000040000fa
:040104004e030000a6
:020000040000fa
:040108004e030000a2
:020000040000fa
:04010c004e0300009e
:020000040000fa
:040110004e0300009a
:020000040000fa
:040114004e03000096
:020000040000fa
:040118004e03000092
:020000040000fa
:04011c004e0300008e
:020000040000fa
:040120004e0300008a
:020000040000fa
:040124004e03000086
:020000040000fa
:040128004e03000082
:020000040000fa
:04012c004e0300007e
:020000040000fa
:040130004e0300007a
:020000040000fa
:040134004e03000076
:020000040000fa
:040138004e03000072
:020000040000fa
:04013c004e0300006e
:020000040000fa
:040140004e0300006a
:020000040000fa
:040144004e03000066
:020000040000fa
:040148004e03000062
:020000040000fa
:04014c004e0300005e
:020000040000fa
:040150004e0300005a
:020000040000fa
:040154004e03000056
:020000040000fa
:040158004e03000052
:020000040000fa
:04015c004e0300004e
:020000040000fa
:040160004e0300004a
:020000040000fa
:040164004e03000046
:020000040000fa
:040168004e03000042
:020000040000fa
:04016c004e0300003e
:020000040000fa
:040170004e0300003a
:020000040000fa
:040174004e03000036
:020000040000fa
:040178004e03000032
:020000040000fa
:04017c004e0300002e
:020000040000fa
:040180004e0300002a
:020000040000fa
:040184004e03000026
:020000040000fa
:040188004e03000022
:020000040000fa
:04018c004e0300001e
:020000040000fa
:040190004e0300001a
:020000040000fa
:040194004e03000016
:020000040000fa
:040198004e03000012
:020000040000fa
:04019c004e0300000e
:020000040000fa
:0401a0004e0300000a
:020000040000fa
:0401a4004e03000006
:020000040000fa
:0401a8004e03000002
:020000040000fa
:0401ac004e030000fe
:020000040000fa
:0401b0004e030000fa
:020000040000fa
:0401b4004e030000f6
:020000040000fa
:0401b8004e030000f2
:020000040000fa
:0401bc004e030000ee
:020000040000fa
:0401c0004e030000ea
:020000040000fa
:0401c4004e030000e6
:020000040000fa
:0401c8004e030000e2
:020000040000fa
:0401cc004e030000de
:020000040000fa
:0401d0004e030000da
:020000040000fa
:0401d4004e030000d6
:020000040000fa
:0401d8004e030000d2
:020000040000fa
:0401dc004e030000ce
:020000040000fa
:0401e0004e030000ca
:020000040000fa
:0401e4004e030000c6
:020000040000fa
:0401e8004e030000c2
:020000040000fa
:0401ec004e030000be
:020000040000fa
:0401f0004e030000ba
:020000040000fa
:0401f4004e030000b6
:020000040000fa
:0401f8004e030000b2
:020000040000fa
:0401fc004e030000ae
:020000040000fa
:040200004e030000a9
:020000040000fa
:040204004e030000a5
:020000040000fa
:040208004e030000a1
:020000040000fa
:04020c004e0300009d
:020000040000fa
:040210004e03000099
:020000040000fa
:040214004e03000095
:020000040000fa
:040218004e03000091
:020000040000fa
:04021c004e0300008d
:020000040000fa
:040220004e03000089
:020000040000fa
:040224004e03000085
:020000040000fa
:040228004e03000081
:020000040000fa
:04022c004e0300007d
:020000040000fa
:040230004e03000079
:020000040000fa
:040234004e03000075
:020000040000fa
:040238004e03000071
:020000040000fa
:04023c004e0300006d
:020000040000fa
:040240004e03000069
:020000040000fa
:040244004e03000065
:020000040000fa
:040248004e03000061
:020000040000fa
:04024c004e0300005d
:020000040000fa
:040250004e03000059
:020000040000fa
:040254004e03000055
:020000040000fa
:040258004e03000051
:020000040000fa
:04025c004e0300004d
:020000040000fa
:040260004e03000049
:020000040000fa
:040264004e03000045
:020000040000fa
:040268004e03000041
:020000040000fa
:04026c004e0300003d
:020000040000fa
:040270004e03000039
:020000040000fa
:040274004e03000035
:020000040000fa
:040278004e03000031
:020000040000fa
:04027c004e0300002d
:020000040000fa
:040280004e03000029
:020000040000fa
:100400000f1f21000eff27000e01880000000000d2
:10041000000020000000e000020032000001200087
:100420002002880014000700fd0a07000000e00019
:1004300003003a00209c2100010020000200370048
:100440000000200001002000810f70000100320038
:100450000f000700000020000000e0000200320052
:100460000000020000000000221b0200000000004b
:100470000040da000000fe00000420000000e00060
:1004800002003200002020009001880000000600d9
:10049000a1028800800478000000eb001f003700f4
:1004a000e284440054a0b4009905ba00e2844400f8
:1004b00054a0b4009906ba00e284440054a0b400e9
:1004c0000006eb00476fde00fd07b200ae018800ba
:1004d000636ce10003003a000ad801000000eb0061
:1004e0000e003700606ce10008003a00004deb00a0
:1004f0000a05e800020039003420ec000af0a000f0
:100500008b05e900f9ff3e00040037006168e10057
:10051000010032000086eb000b00070019c7ba008b
:100520000e04e0001905ba0003003a000a00e000da
:10053000dbff3a0000000600fe07b200ae028800b2
:100540008a047800f5ff37000cd0a300e20f4d00bd
:100550001c00390089027800354dba000a05e80010
:10056000020039003420ec000af0a0008b05e900fd
:100570000f003200254dba000a05e80002003900dc
:100580003420ec000af0a0008b05e90008003200de
:100590000c00e0000600320015cdba000a05e800a4
:1005a000020039003420ec000af0a0008b05e900bd
:1005b0008984e80054a0b4000b00e000e2ff3a0098
:1005c000000006009902ba00055d78008b05e9007d
:1005d000f7ff3200c82ade00055d78008b05e900d0
:1005e000f3ff32000c00e000f1ff320019ddba0029
:1005f000eeff37003600f800c028a9000000eb002d
:10060000630d07003600f800650d0700c048a9001b
:10061000100020005e0d07003600f800c068a90039
:10062000200020005a0d07003600f800c088a900fd
:1006300030002000560d07003600f800c0a8a900c1
:1006400040002000520d07003600f800c608a9003f
:10065000700020004e0d07003600f8002146800093
:1006600000022000008060000000e0000300320073
:10067000c4a8a90090002000450d07002046800076
:10068000700060000000e00003003200c488a90090
:10069000a00020003e0d0700ffff37000040da00f9
:1006a0000000fe000800fa001007980021079800db
:1006b0003207980000000000111180000010200097
:1006c000008060000000e000fbff3200be009000f0
:1006d000010f78000e0037000000000011118000ab
:1006e00000102000008060000000e000fbff3200ee
:1006f0002e009000104078000000fb0020118800c0
:100700002e0090000000e800200798001e0fe9006e
:100710001e0078000000e000efff3a003e0090006d
:100720000080fa00000006000000fa00688157000f
:10073000cfb89700001b2100e20007000080fa00fc
:10074000000006000800fa00889fbe008a9fbe00d5
:100750000084fb00d1c6b300814f50003a00360040
:100760004b062000110009000b84d8008105780099
:10077000720040004300dd00490b2100008044006e
:100780006022b8000600200007fe230090009000c1
:1007900020019000b0019000100078009008070040
:1007a0000002be000203be0084bf9f0095bf9f00f1
:1007b000a6bf9f00b7bf9f00aa002000110009003c
:1007c0008a85d80080057800e9854500c35ddd0095
:1007d0008b8544001b0278009b0290002b03900045
:1007e000bb0390000fb897009fb897002fb99700f0
:1007f000bfb997007a0807000002be000203be00de
:1008000084bf9f0095bf9f00a6bf9f00b7bf9f00fa
:10081000110009000a84d800010478004344dd0077
:1008200088844400190278009902900029039000fe
:10083000b90390000fb897009fb897002fb99700a1
:10084000bfb9970023003700ea4f50001700360069
:10085000aa002000110009000a84d80001057800d0
:10086000690440004344dd00490b21000884440032
:100870006022b8000600200007fe23001800780060
:100880009800900028019000b801900054080700db
:100890004355dd008a8444001902780099029000d3
:1008a00029039000b90390000a0037004344dd009b
:1008b000400b2100080440006022b8000600200020
:1008c00007fe23001800780098009000280190008f
:1008d000b8019000420807004f05be004f04be005b
:1008e0000080fa00000006000800fa00889fbe00a1
:1008f0008a9fbe00d1c6b3000004e00027003d007f
:100900000040ea000004fb00814f50000a00340060
:1009100042062000110009000204d800a9002000ae
:10092000110009008900d800e9004000c308dd007b
:100930004a0b210025003700ea4f50001400340014
:10094000a2002000110009000204d8000101780073
:10095000690040004300dd00410b210000804000a1
:100960004311dd0082804000110278009102900066
:1009700021039000b10390009000900020019000ae
:10098000b001900010007800150807004000370003
:100990004344dd00400b2100380037000004fb0019
:1009a000814f500029003400420620001100090048
:1009b0000204d800a9002000110009008900d80015
:1009c000e9004000c308dd004a0021008100450025
:1009d000110278009102900021039000b103900071
:1009e0008b0920008a8545001b0078009b00900041
:1009f0002b019000bb019000f90707000002be0028
:100a00000203be0084bf9f0095bf9f00a6bf9f004a
:100a1000b7bf9f00110009000904d8000104780045
:100a20004344dd00080545001a0278009a02900050
:100a30002a039000ba0390000fb897009fb8970060
:100a40002fb99700bfb99700cfff3700ea4f50008a
:100a500008003400a2002000110009000204d800a0
:100a600001017800690040004300dd0041002100e1
:100a7000baff37004344dd00400021000804400075
:100a8000180078009800900028019000b8019000ac
:100a90004f05be004f04be000080fa0000000600b3
:100aa000d0019000028151004240a90003003400af
:100ab00010017800014978000208e8000100780080
:100ac000000006006f02b000889fbe008a9fbe0033
:100ad0008c9fbe008e1f780000067800b1af9f008b
:100ae00082b79f006000b8006011b800c0af9f00df
:100af000d1af9f00e2af9f00f3af9f008006eb00f5
:100b00007c043700bfa897008100e800b1af9f00c8
:100b100051c2b300814f500003003a00bfa99700b3
:100b20000000eb0011003700bc0090000000fb004b
:100b30000168a300070032000d01780080007800f2
:100b40000c007800d6ff07000000e00005003a0026
:100b5000680437008c00780072040700e10f400041
:100b6000640432008d06e800620437000301780057
:100b7000b3407800d4c2b30084cf50000c003200e0
:100b800007003c006d42520084cf50000a00320042
:100b90006b42420084cf50000d003a00080037003d
:100ba00004c3b30084cf500009003a0006003700a8
:100bb0000030a000edff37000000a000ebff370081
:100bc0000010a000e9ff37000020a000e7ff370079
:100bd0000018a300010032000000a1000038a300ab
:100be000010032000020a1008101fb000303b100dd
:100bf000e98f51000c003e00820178008005eb0077
:100c0000ea59b900b305fb000b03b100828545002a
:100c1000030178009300fb000103b100e98f50004d
:100c2000f7ff3600080037008005eb00a3c2b300d1
:100c300083cf500004003a008fb19700c3057800bd
:100c400083b79f000201e800e1c2b30092cf100019
:100c500017003a0000e0a000e4c05000d2cf10001e
:100c600004003200820078000002eb00e4b79f002d
:100c7000080037008fb297004503780085b79f00c2
:100c8000e6b79f000201e8000c003700ea22b90035
:100c90000482410001017800b101fb000303b100af
:100ca000e98f5100f9ff3600e4b79f0003003700d9
:100cb00000c0a0008003eb00e7b79f00b2407800bf
:100cc000b2af9f00c3c6b30083cf50001400320000
:100cd00009003c0032c6b30082cf500079003200d8
:100ce0006341410082cf50000f0032000104e00058
:100cf000050432008c00370052c7b30082cf500089
:100d00008e0032006341410082cf50000900320062
:100d10006541510082cf500083003a00080037003f
:100d20000040a000e5ff3700e1cf9f0000a0a00039
:100d300084003700e1cf9f000070a00081003700e1
:100d4000e1cf9f000fb29700c400780084b79f00e6
:100d5000010478000100e00001003a00481621007b
:100d6000080178008000eb00010037008100e800f6
:100d7000810141001304e000fcff3a008104780087
:100d8000efb297000500e00003003200898f5200a7
:100d900001003100850478000005eb00898f5500c3
:100da0000100360009855500e80560002a003a0078
:100db000110037003c0090000068a30007003200db
:100dc0000d017800010220000c00780034ff0700bc
:100dd0000000e00006003a00060037008c007800b2
:100de00000022000cf030700e10f400001003200a5
:100df0008d06e8000a05e9000a00e000edff3a0070
:100e00000085eb00140037003c0090000068a30050
:100e10000900320008007800b000fb0000047800f0
:100e20000d0178000c0078001dff07000000e000b5
:100e300008003a0008003700880078003100fb0005
:100e4000010478008c007800b6030700e10f400031
:100e5000010032008d06e800090078008004e900f6
:100e60000000e000e8ff3a000b00e000a1033200c0
:100e7000110037003c0090000068a300070032001a
:100e80000d017800010220000c00780004ff07002b
:100e90000000e00006003a00060037008c007800f1
:100ea000000220009f030700e10f40000100320014
:100eb0008d06e8000a05e9000a00e000edff3a00af
:100ec0008c0337000fb397004602780086b79f0067
:100ed000cfa2de00c82bdd004821de0002817300b6
:100ee000c829de00e2cf9f000048a30008003200be
:100ef0000204e00006003200e14f4100040032002d
:100f0000f2cf9f0084d79f00290020000200370005
:100f1000f4cf9f0019002000e1fc2f008f804000db
:100f20000104e80096ff3700e1cf9f00e8fc2f00a6
:100f30000f0444001900200091ff3700e1cf9f000b
:100f4000000cb300d0b79f00007020005fb1970085
:100f500000006100f0016100a3af9f000000e0000d
:100f60002e02320002c8a3000200320064002000fa
:100f7000e4b79f00afaa97000500e0000c00320024
:100f80000fb297006802520014007800940090009d
:100f900024019000b401900084b79f0090b79f0097
:100fa000a1b79f00b2b79f00c3b79f000c003700e6
:100fb0008fb29700e48252001500780095009000ef
:100fc00085b79f00a60507000002be000203be0011
:100fd00094b79f00a5b79f00b6b79f00c7b79f0003
:100fe0006022b8006033b8001fb09700afb0970020
:100ff0003fb19700cfb19700a90407000000e000bf
:101000000c003d001fb09700afb097003fb19700b4
:10101000cfb1970003f0a20090b79f00a1b79f0047
:10102000b2b79f00c3b79f00dfb097003100b30095
:10103000d1b79f000000eb0090af9f006022b80086
:101040006033b8001fb09700afb097003fb1970072
:10105000cfb19700380507000000e00034003200ef
:1010600024fd2f000f0242001fb09700afb0970081
:101070003fb19700cfb197000e0607001fa8970059
:101080000000e900e300b900a200200011000900ff
:101090000200d80090af9f000000e00002003d0079
:1010a0000000e90090af9f001fac97000840ea00e5
:1010b0000dfe07001fb29700afb297003fb3970035
:1010c000cfb39700460607000002be000203be0031
:1010d000c4af9f00d5af9f00e6af9f00f7af9f0062
:1010e0006022b8000600200007ff23006c04070000
:1010f0000000e00002003d000804e9000b0037009a
:101100006022b80006002000470224004fa8970084
:10111000dfa897006fa99700ffa997006504070053
:101120000000e000020035000804e80098af9f00ce
:10113000efb29700ec8f52000f003c0005407800a2
:1011400080fd07000002be000203be001fb0970032
:10115000afb097003fb19700cfb19700740307007d
:101160000002be000203be0094b79f00a5b79f0017
:10117000b6b79f00c7b79f001fac9700e90f540098
:1011800015003c006022b8006033b8001fb0970023
:10119000afb097003fb19700cfb19700e6040700ca
:1011a0000000e000310032001fb09700afb09700a0
:1011b0003fb19700cfb1970048050700e00f5000fe
:1011c000e08f5800e00f5900e08f590027003a00e7
:1011d000e10f5400250034000400200005002e001b
:1011e000b6e02200170124004fa89700dfa897005f
:1011f0006fa99700ffa99700290407000000e000ed
:1012000002003d00690454000100370068045400e6
:1012100098af9f002fd09700b3fd07000002be00db
:101220000203be00c4af9f00d5af9f00e6af9f0092
:10123000f7af9f001fb09700afb097003fb1970086
:10124000cfb1970020040700240507000004be006a
:101250006000b8006011b80090b79f00a1b79f0070
:10126000b2b79f00c3b79f00160037001fb09700aa
:10127000afb097003fb19700cfb1970017050700b7
:101280000004be00610507000002be000203be00ac
:101290001fb09700afb097003fb19700cfb1970054
:1012a000790607000002be000203be0094b79f004b
:1012b000a5b79f00b6b79f00c7b79f000000eb001f
:1012c00090af9f00c117210010c0b3000500370088
:1012d000e4804000b10f5400a18f5c00030039008e
:1012e0000040e800ea4f5000f9ff3a00e0cf9f00cd
:1012f0009fa8970081805500efb29700858050002d
:101300000005fb000a8550000500e00001003200e6
:101310000a05e9005fb39700630063000100320033
:101320000a05e900dfb397000728a300390032005f
:10133000618163000718a3000f0032003c00900099
:101340000068a30006003200b10220000200e000a5
:10135000010032008180e8000d0178000d003700a7
:10136000b00220000200e000010032000080e8002e
:101370008c0078000e0037000200e00022003200ee
:101380003c0090000068a300070032000d017800c7
:10139000010220000c007800c1fd07000000e00001
:1013a00006003a00180037008c0078000002200088
:1013b0005c020700e10f4000130032008d06e800d8
:1013c000110037003c0090000068a30007003200c5
:1013d0000d017800010320000c007800b0fd07002b
:1013e0000000e00006003a00060037008c0078009c
:1013f000000320004b020700e10f40000100320013
:101400008d06e8000a05e9000a00e000edff3c0057
:101410005b0037005fb097000038a30014003a006b
:10142000110037003c0090000068a3000700320064
:101430000d017800010220000c00780098fd0700e3
:101440000000e00006003a00060037008c0078003b
:101450000002200033020700e10f400001003200cb
:101460008d06e8000a05e9000a00e000edff3c00f7
:10147000dfb09700618160000118a3000e00320008
:101480003c0090000068a30005003200b10220007b
:101490000200e000230032008180e80021003700d4
:1014a000b00220000200e000010032000080e800ed
:1014b0008c0078002e0037000200e000300032007f
:1014c0003c0090000068a300030032000d0178008a
:1014d00001022000140037008c0078000002200078
:1014e000230037003c019000c11721000000fb00e1
:1014f0000268a300110032004200dd0000804000bd
:1015000010017800900190000800be00e00507007f
:10151000a200200003002000ed05070001032000c9
:10152000808040000d0178000c0078005cfd070011
:101530000000e00011003a00110037004200dd0019
:101540000080400010017800900190000800be006b
:10155000cf050700a200200003002000dc050700e3
:1015600002032000000141008c0078000200780096
:10157000ec010700e10f4000010032008d06e80099
:10158000efc897000140e900e0cf9f000104e000b0
:10159000d4ff3a00130037003c0090000068a3001d
:1015a000070032000d017800010320000c007800d4
:1015b0003bfd07000000e00006003a00060037008f
:1015c0008c00780000032000d6010700e10f4000e6
:1015d000010032008d06e8001fa897000000e90016
:1015e00090af9f001fa897000000e000eaff3c00ba
:1015f0006fb19700e80f51000300340080c0b300c2
:10160000e0cf9f0002003700cfe99700e3cf9f00b3
:101610006fc897008005fb006fb297008b055200e2
:101620000004e000100032003c0090000068a300bd
:10163000070032000d017800e10220000c00780064
:1016400017fd07000000e00006003a000600370022
:101650008c007800e0022000b2010700e10f40009a
:10166000010032008d06e8006fc897009efc07005d
:101670000002be000203be001fb09700afb097008b
:101680003fb19700cfb19700d504070013040700be
:10169000300037003c019000c11721000000fb0022
:1016a0000268a300110032004200dd00808040008b
:1016b00011017800910190000800be007405070038
:1016c000a200200003002000810507000103200084
:1016d000808040000d0178000c007800f0fc0700cd
:1016e0000000e00011003a00110037004200dd0068
:1016f0008080400011017800910190000800be0038
:1017000063050700a2002000030020007005070009
:1017100002032000000141008c00780002007800e4
:1017200080010700e10f4000010032008d06e80053
:10173000efca97000500fb004200dd00c117210041
:101740000080400010017800900190000800be0069
:101750005f0507000004be00efc897000140e900e4
:10176000e0cf9f000104e000caff3a0011003700fb
:101770003c0090000068a300070032000d017800d3
:10178000010320000c007800c5fc07000000e00009
:1017900006003a00060037008c00780000032000a5
:1017a00060010700e10f4000010032008d06e800f3
:1017b0008b05e9000b00e000edff3a005fb39700f6
:1017c0000638a3004b0132000a00e0004901340052
:1017d0003c0090000068a300070032000d01780073
:1017e000010220000c007800adfc07000000e000c2
:1017f00006003a00060037008c0078000002200046
:1018000048010700e10f4000010032008d06e800aa
:101810000a05e900eeff3a0036013700afab97004a
:101820000700e000060032000fb09700640050008f
:10183000100478009004900080b79f0004003700e7
:101840008fb097004104780081b79f008004eb00bf
:101850006fb197000200e00006003a0008807400b3
:1018600000f0a7000000ea000000e9004f00de00e1
:10187000e0b79f00dfb19700030cb20093b79f0061
:1018800000082000808f51000d003200000c200065
:10189000808f510018003a00c117210010c0b3001a
:1018a000e4804000b10f5400a18f5c0011003900aa
:1018b0000040e800ea4f5000f9ff3a000d00370001
:1018c00010c0b3000201200003002000820f54006a
:1018d000838f5c0007003900441add00cc11de0064
:1018e000830172004411dd000040e800e84f500021
:1018f000f6ff3a00e0cf9f00efca97000500fb001b
:101900006fb39700860f500002003d00e6cf9f00a6
:1019100004003700efb39700808f530001003d00b3
:10192000e0b79f000b00e00004003200dfb097003a
:1019300063806000010032008b05e9005fb1970011
:1019400002e8a30006003200efb19700838f550034
:101950000200340083855500010037008005eb004c
:101960006fca97000400fb000007eb00808f550052
:101970000100340000875500dfb297000528a3005e
:1019800038003200618162000518a3000f003200a8
:101990003c0090000068a30006003200b102200065
:1019a0000200e000010032008180e8000d017800b3
:1019b0000d003700b00220000200e00001003200fc
:1019c0000080e8008c0078000e0037000200e00084
:1019d000100032003c0090000068a30007003200b5
:1019e0000d017800010220000c0078002cfc07009b
:1019f0000000e00006003a00060037008c00780086
:101a000000022000c7000700e10f40000100320083
:101a10008d06e8000e00e0004e0032003c00900011
:101a20000068a300070032000d01780001032000c8
:101a30000c0078001afc07000000e00006003a00e5
:101a4000060037008c00780000032000b500070076
:101a5000e10f4000010032008d06e8000e07e900aa
:101a6000ecff37000e00e000150032005fb3970076
:101a70000638a30012003a003c0090000068a30062
:101a8000070032000d017800010220000c007800f0
:101a900003fc07000000e00006003a0006003700e3
:101aa0008c007800000220009e000700e10f40003b
:101ab000010032008d06e8000e07e900eeff3a0053
:101ac000dfb39700618163000718a3000f003200a5
:101ad0003c0090000068a30006003200b102200024
:101ae0000200e000010032008180e8000d01780072
:101af0000d003700b00220000200e00001003200bb
:101b00000080e8008c0078000e0037000200e00042
:101b1000100032003c0090000068a3000700320073
:101b20000d017800010220000c007800dcfb0700aa
:101b30000000e00006003a00060037008c00780044
:101b40000002200077000700e10f40000100320092
:101b50008d06e8006fb097000002e9004222dd0028
:101b6000c017210000024200efb59700040578007d
:101b7000470037008b05e900000820009fb0970060
:101b8000808f500022003200000c2000808f500017
:101b90002d003a002fa997000200e000110032004a
:101ba0001a0278009a0290000401be000800be00ec
:101bb000f4b79f0085bf9f0035040700e0cf9f006a
:101bc0000000fb00cf80de007fb297008fba970045
:101bd0000401be00410407000004540081845c003d
:101be000070037001a017800110009000284d800ac
:101bf000a2002000110009000280d800e1cf9f0060
:101c0000efc997000343b000e3cf9f000e003700f9
:101c1000c0172100000055000802be000003780034
:101c20000603e900030033008502d1000482d300db
:101c3000fbff37006f006200b116210000804000fa
:101c400010407800e0cf9f00bc009000efcb9700e1
:101c50000700fb000168a300070032000d017800b7
:101c6000800078000c0078008dfb07000000e00089
:101c700005003a00050037008c00780029000700b5
:101c8000e10f4000010032008d06e80064055500b8
:101c90000b00e000b7ff3a005fb097000038a300e8
:101ca000140032000e00e000120034003c009000ee
:101cb0000068a300070032000d0178000102200037
:101cc0000c00780076fb07000000e00006003a00f8
:101cd000060037008c007800000220001100070089
:101ce000e10f4000010032008d06e8000e07e90018
:101cf000eeff3a00bfa8970011407800e0cf9f00a8
:101d00000004e0007ffb3a000d0078004f077800e8
:101d10004f06be004f05be004f04be006f02b1006b
:101d200000000600889fbe0001047800b800900003
:101d30008084eb000118a3003a00320018019000e3
:101d40000198a30002003a000200e00035003a00ca
:101d50000190a0003104980080047800f90fb200cf
:101d60000200e00002003a0028009000000c780019
:101d7000ea8f540005003a000178a30003003a00fe
:101d800088007800d0002000e6ff070018009000cf
:101d9000d8009000810f50000b0032000000e800d6
:101da000100498001800780009487800000ce8003a
:101db00011c0b300a01e210001487800ea8f540032
:101dc00018003a00050037008800780009407800c4
:101dd00017000700800478001200370038009000d8
:101de0000088a3000f00320018019000a8009000a6
:101df000480090002bfa070098009000810f5000d7
:101e000004003200380090000003b3003004980052
:101e10008084eb000000eb00100498002800900084
:101e2000000c7800090078004f04be000000060096
:101e30000200fa00889fbe00a0ff9f000104780006
:101e4000380090000068a30033003a00e200600010
:101e500005003a000003b300300498001104980014
:101e60000080eb002e003700d80490000900e0004d
:101e700006003a0012002000e6805700480090005b
:101e800008fa07001904980023003700a800900002
:101e90000100e00008003a00d11e21002104980052
:101ea000010c7800210020005104980011049800d2
:101eb0000030a0003004980018019000a8009000a5
:101ec00048009000f7f90700280090008080eb00a0
:101ed00011049800aff8970001487800000ce80062
:101ee0002ff89700ea4f50000b003a00380090009e
:101ef0000088a3000800320018019000a80090009c
:101f000048009000e7f907000000eb00100498007b
:101f1000a8009000010c7800aff897000100fb00ca
:101f20004f04be000080fa00000006000000000020
:101f30002800fa00889fbe008a9fbe008c9fbe00ca
:101f400007067800878669000c003b0003047800d0
:101f50008704780008f0a10009f0a100840f500068
:101f6000858f5800860f5900890f5c0003003300ed
:101f70000cf0a20001003a000cf0a1009f01070044
:101f80006400e1005f003200780147006408e1006e
:101f9000610032006c014700748557003200be00ba
:101fa0001201be003a04be001a05be001e039000d6
:101fb000be0a90008503530006003d000004fd00aa
:101fc0008104fd000205fd008305fd008703ea0092
:101fd000050378000df8a30004003200600414002b
:101fe000e0841c0060051d00e0851d006022b80033
:101ff0007d0320000d38e1008006eb000b00390066
:102000004433dd00f300b200830173003900370070
:10201000848272000d027800e10664008b85d10095
:102020000a85d3008984d3000884d3008703e9009c
:10203000f7ff3b0008004000898048000a01490082
:102040008b81490004003b0060001000e080180014
:1020500060011900e08119000358a3000900320053
:102060008d82720084827200610260008301d1005f
:102070000281d3008180d3000080d3000603e800f2
:102080001b0037000348a30017003a000600e000d9
:10209000170034000603e9000d00a300000048000b
:1020a0008180480002014900838149000348a30060
:1020b0000f003a000600e000090034000603e900c2
:1020c00000004000818048000201490083814900ee
:1020d00001003a000003eb000348a300f5ff3200c3
:1020e0006022b800020037008482720061826600bc
:1020f0001601070003f0a1000cf0a70003f0a000f8
:1021000052013700640147006408e10002003a0010
:102110000df8a3004a013a0032007800b2007800be
:102120001201be004901370003f0a200889fbe00e3
:102130008a9fbe008c1f7800100207001702330030
:102140006450e1004f0032006420e1005200320090
:1021500003826c0007003b000905d0000306d00095
:10216000820f54000c065d000200390002003200ac
:1021700089017800030678008582550004003d003f
:102180000003fd008103fd008502ea008b8542000b
:10219000840f720002003b0060001000e080180015
:1021a0006011b8000005eb007a28e1000a00390050
:1021b00006007800c75ddd00f707b2008780750074
:1021c0002d003700828171000a01780061056000ee
:1021d0008180d1000080d3008502e900f9ff3b0037
:1021e000060440008784480002003b00600414009d
:1021f000e0841c000988a300070032008a81710076
:1022000082817100610164008904d1000884d300d7
:102210008b05e800170037000978a30013003a0087
:102220000b00e000130034008b05e90008044400b3
:1022300089844c000a4474000978a3000d003a0018
:102240000b00e000070034008b05e900080444009f
:1022500089844c0001003a000b0020000978a3009b
:10226000f7ff32000001eb000200370082817100ad
:102270000a017800690107000cf0a70001f0a00036
:10228000cf0137006420e10002003a00838f6c0028
:10229000cf0133000801be000200be00c8013700b4
:1022a0008f1fd100930207008f87e9000000e00034
:1022b00000000600809feb008e0207008f87e90078
:1022c0000000e000000006002800fa00889fbe0021
:1022d0008a9fbe008c9fbe0003866b00c70007006c
:1022e0006400e100440032006408e1004a0032006a
:1022f0006100e100460032006108e100490032005f
:10230000ec0647006000b8003d02be003d03be0081
:10231000f48657006011b8003d04be003d05be00c4
:102320007d0320000b0037000000a0008d06e900af
:10233000130032000402420085824a0006034b006b
:1023400087834b0000004000818048000201490063
:10235000838149000802520089825a000a035b0007
:102360008b835b00f0ff3b000802420089824a0039
:102370000a034b008b834b008d06e900edff3a000a
:102380008482720086827200f707b2008782720030
:1023900001003200150020001e0490003e0b90004a
:1023a00006035400e63fb0000368a30007003200b4
:1023b0000000a7000500a0008301d1000281d30026
:1023c0008180d3000080d3000603e8008301d100a0
:1023d0000281d3008180d3000080d3000002eb0093
:1023e0000482d2005900070003f0a1000cf0a700fe
:1023f00003f0a00095003700640247006408e10084
:102400008f0032003400be003401be00f6ff3700fa
:102410006108e1008a0032006011b8006000b80075
:10242000f1ff370003ff270002002000fbff370009
:10243000889fbe008a9fbe008c1f78004f01070056
:102440005601330003866c006450e1002e00320018
:102450006420e100330032006150e1002f003200bf
:102460006120e1003100320085855500eb07b000a6
:10247000090020000804200005003700080444007b
:1024800089844c000a0031000603430087834b0017
:102490000001530081815b00f8ff33000203be009e
:1024a0000800a0000804440089844c00f6ff3900ad
:1024b000c639dd00830173000100320013002000e3
:1024c0008904d1000884d3000998a30005003200d4
:1024d0000800a7000300a0008904d1000884d300ed
:1024e0008b05e8008904d1000884d3000001eb00cb
:1024f0000281d200c900070001f0a1000cf0a70082
:1025000001f0a0002e0137006420e100300132000c
:102510000801be000200be00f7ff37006120e100a5
:102520002b0132006000b800f3ff370000002000ec
:1025300001f82700f0ff3700801feb00ed010700d6
:102540008f87e9000000e00000000600180020006e
:1025500057002000080453000d003d000600200035
:1025600097fc2f000740e1001e00340084827200b7
:10257000610260008301d1000281d3008180d30019
:102580000080d3000804e800f8ff3a00470020006c
:102590006104600005047400040464000d0032004e
:1025a00061004000e080480060014900e08149008e
:1025b00003b8a500070032000603e8006538e10013
:1025c00004003a008301d1000281d3008180d3004e
:1025d0000080d300f87f20000830e10003003500c0
:1025e000080378006000b8006011b8004433dd00d3
:1025f000f300b20083017300000006006804470086
:102600000294be000094be00fc0447008694be0005
:102610008494be00090078000002070008007800da
:10262000fe01070099007800814f70000b003b000d
:102630000800be00d80107004f00b10003003700ba
:10264000f3ff2700f2ff2f006110b9004f06be0014
:102650004f05be004f04be000080fa0000000600d7
:1026600081037800b00007000001be006000b800e0
:102670000478a30013003a006220e10015003e0038
:102680000d0039008301d1000281d3008180d30085
:102690008301d1000281d3008180d3008301d10066
:1026a0000281d3008180d3000538b000c42add0048
:1026b000f300b2008381720007f0a70003f0a000ce
:1026c00000000600f3ff2700f2ff2f006110b900a1
:1026d000fbff370003ff2700f7ff37001400fa0065
:1026e000889fbe008a9fbe008c9fbe000004be0073
:1026f0000205be00680047000a90be000890be00b8
:10270000c60107000070a7000bf0a1000bf8a300a2
:1027100020003a009e0990000e099000fe009000f3
:102720006e0090009e02900034432000848252008c
:10273000c6ff32000a003c00b4fc2f000428e10070
:10274000140034008301d1000281d3008180d300c2
:102750000080d3008502e800faff3a00bbff370093
:10276000b40020000428e10007003c000000400005
:102770008180480002014900838149008502e90007
:10278000faff3a00b1ff37000300280002002000e2
:10279000010037006011b8006000b800abff3700df
:1027a0000001be00600007000470a70003f0a10054
:1027b00003f8a30013003a006509b10010003200cd
:1027c000090035006928e1000200350001002800f9
:1027d0000000050000004000818048008502e900fb
:1027e000fcff3a0000000600f88f420005003500ab
:1027f0008100d1000080d3008502e800fcff3a0090
:10280000000006008000eb00000005006011b80029
:10281000a90137006011b800d20137008100200003
:10282000618055000b003d000b00200061fe2f0071
:102830000100e1001d00340082817100610164002b
:102840008904d1000884d3000000e800faff3a00b0
:10285000710020006100640003007000020060004d
:102860000900320061044400e0844c000988a5009e
:10287000050032008b05e8006808e10002003a001c
:102880008904d1000884d300f20f20000258e1002f
:1028900005003d00c75ddd00f907b20089807500c5
:1028a00008007800000006000bf827008b00780075
:1028b000000005001400fa00889fbe008a9fbe0039
:1028c0008c9fbe00040678000004be000205be0016
:1028d000680047000a90be000890be004f01070044
:1028e0006200e1000800be000a01be0004002000f2
:1028f0000b003a001e029000e43fb1006e00900011
:10290000fe0090000e0990009e099000f300b200b6
:1029100005fe2300858171000bf0a70003f0a000e5
:10292000040e780049ff3700c70ade00f107b20045
:10293000f50fb20008003200e1cf42000200320081
:102940000170a00024000500810f7000010032001a
:102950000408050044000500810f700002003a00e1
:10296000140005008502e9000000400081c0480015
:10297000fcff3b000170a000240005000004be0025
:10298000e9ff07000003be000405be000200be0010
:10299000e5ff0700844f7500000006000200be003e
:1029a0006450e100050036006420e10002003600ba
:1029b0000968a30001003a000800be000160a00001
:1029c0004f0678004f05be004f04be000000060011
:1029d000f0ff2f00f1ff2700f9ff37000000000093
:1029e0002800fa00889fbe008a9fbe008c9fbe0010
:1029f00003866b0001ff07000028a30064003a0073
:102a00000128a30068003a000008a30062003a0011
:102a10000108a30066003a001e009000be08900066
:102a200081064000ed3fb100f4805700ee019000b8
:102a3000111ab8008e099000311bb8009e09900051
:102a4000311cb800511db800f4855700460007003e
:102a5000fe0190003a0007008b85e8003e00070069
:102a60008e09900040000700ee019000340007003e
:102a70008b85e800380007008e09900040000700b1
:102a80009e0990001b18b800890440000a85480080
:102a9000fe019000340007008b85e8003800070035
:102aa000ee019000300007008e0990001b18b8005e
:102ab000890440000a8548000a98a30008003a00eb
:102ac0000402420085824a0006034b0087834b00c4
:102ad00008044c0089844c000a054d008d06e9006d
:102ae00084827200850273004c3add008502720018
:102af0000100320015002000443ade001400b2004c
:102b00004538de00cb45dd000b007000c540de001f
:102b1000cb4ddd008b8070004549de00cb55dd00dc
:102b20000b017100c551de000d03780087fe070020
:102b300003f0a1000cf0a70003f0a000c3fe3700d3
:102b40001b18b8008502400006834800e0834b0054
:102b500060044c00070037001b18b8000603400053
:102b600087834800faff37001b18b800870340002e
:102b700008844800e0844c0060054d000000060019
:102b80001b18b8000804400089844800faff370089
:102b90000108a300aafe3a005800be000000000091
:102ba0005801be00e2ff37000008a300a4fe3a006f
:102bb00009047800f8ff3700889fbe008a9fbe0096
:102bc0008c1f78006dff070074ff330003866c00d4
:102bd0006450e100240032006420e100270032004c
:102be0006150e100220032006120e100210032004a
:102bf0008b854200eb07b1000134b800003ab80001
:102c00000804420089844a00013ab8000030b80044
:102c10008880400009014a000400330000004000a1
:102c200081804800020149008b05e900c909dd00e7
:102c3000830170000100320013002000c814de0080
:102c40004814dd004709de001200b200c808de00ab
:102c500008847000f1fe070001f0a1000cf0a7004d
:102c600001f0a00056ff37006120e10058ff32005c
:102c70000801be000200be00f7ff37006150e1000e
:102c8000fcff3a0052ff370007f0a200a8fc370013
:102c90006022b800060220000000d0008180d2002f
:102ca0000482d2008582d2000000a00002025200fd
:102cb00083825a00030031000202420083824a00ec
:102cc0000000a1000603e900f3ff3a00000006003f
:102cd000efff07000400be0000000600020ab90072
:102ce000001bb9000200b8008100420081004300cf
:102cf00000000600889fbe008a9fbe008c9fbe0019
:102d00000404be000605be00809fbe00829fbe0078
:102d100030000700040678000800be000a01be006b
:102d20002c000700840678004f03be004f02be004f
:102d30008d4f76007fb0970013003300f0ff2f0017
:102d40008b8f6b0006003b000d0666000c00a70091
:102d50000a00370007f0a600100020000a00370024
:102d6000880f5200898f5a008a0f5b008b8f5b009f
:102d7000030039001000200001003e000000200088
:102d800007f0a7000000ea004f06be004f05be0096
:102d90004f04be0000000600e48240001078a3004b
:102da00007003200640240001178a3003400be0026
:102db0001401be00050032000330a7000000060029
:102dc00035007800350078001501be000330a00002
:102dd0000000060005ff27000582610007003200a1
:102de0000428e1000100320024000500060007006d
:102df00001003a0044000500040805000200070035
:102e0000f9ff3a00140005006f8261008102700032
:102e10008502710085027200000006005002be00ab
:102e2000e40050005003be004439de00f700b20059
:102e3000f37f200003016100090032000218e10065
:102e400016003a00850172008301730083817300cc
:102e50000008200015003a00400020001300370051
:102e600085017200830173008381730005003a00bd
:102e700004a8be0006a8be00100020000b0037000a
:102e80000201e9000402420085824a0006034b0069
:102e900087834b000748a300f9ff32000740a000da
:102ea00004a8be0006a8be002000200080009800f4
:102eb0009200980000000600889fbe00008270000b
:102ec00004027100048271002400320036432000a5
:102ed000c50020008383cf000a0039000541b100fe
:102ee0008283cf00070039000541b1008183cf0004
:102ef000040039000541b1008083cf000100390092
:102f00000541b10085c353006022b80012003200b1
:102f10000a003b0084827200610260008301d100dc
:102f20000281d3008180d3000080d3000603e80033
:102f30008743e800f7ff3a00070037000000400031
:102f40008180480002014900838149000603e900ad
:102f50008743e900f9ff3a007cfd07004f04be00fb
:102f600000000600889fbe008a9fbe00008270009d
:102f70000402710004827100260032000004be00c9
:102f80000200be006011b8006b092000950220000d
:102f90000182cf000a0039000541b1000082cf0054
:102fa000070039000541b1000982cf000400390053
:102fb0000541b1000882cf00010039000541b10090
:102fc00005425200120032000a003b00828171006b
:102fd000610164008100d1000080d3008984d300a6
:102fe0000884d3008b05e8000442e800f7ff3a00ac
:102ff000070037000804440089844c0000004800a2
:10300000818048008b05e9000442e900f9ff3a009d
:1030100002fe07004f05be004f04be000000060080
:0430200000000500a7
:020000040000fa
:10302400495f0000542000003d200000252e0000d0
:103034003366000020200000412000000049000009
:103044005f530000203d0000202500002e330000c7
:1030540066200000204100002000000052500000c3
:103064004d2000003d200000252e000031660000a8
:1030740020200000487a000020000000566f000065
:10308400757400003d200000252e0000316600000c
:1030940020200000562000000a0d0000000000005f
:020000040000fa
:1030a4000000fa00c3e8a8000000000000000000cf
:1030b4000080fa00000006000200fa00000f780009
:1030c40021028000200f2000008060001e0070009c
:1030d400200288000080fa00000006000000fa00c8
:1030e4002b020700b4020700070007008202070052
:1030f40058020700eaff070000022000eeff070065
:103104000080fa00000006000000fa000001eb0055
:103114006004200071052000237420008049780099
:10312400814978008249780000102300203a880001
:103134004827ef004e27ef0000042000303a8800b3
:103144004420a90044c0a90044e0a9004480a90087
:103154000080fa00000006000000fa00003a800037
:103164000080fa00000006000200fa00faff0700df
:10317400000f78001e007800240007000004e0001f
:103184000200320000002800710007001e007800d1
:103194002a0007000004e0000200320000002400be
:1031a4006b0007001e007800320007000004e000f6
:1031b4000200320000202000650007001e00780095
:1031c4003a0007000004e00002003200000820007a
:1031d4005f0007001e007800420007000004e000c2
:1031e4000200320000042000590007001e0078008d
:1031f4004a0007000004e000020032000001200041
:10320400530007000080fa00000006000400fa00e2
:10321400100798000040eb00004f78001e0090005b
:103224000000e00002003d0010c0b300004f780031
:103234001e4078000080fa00000006000400fa0036
:10324400100798000040eb00004f78009e009000ab
:1032540000002400008060000000e0000200320052
:1032640010c0b300004f78001e4078000080fa00c0
:10327400000006000400fa00100798000040eb006c
:10328400004f78009e009000002020000080600025
:103294000000e0000200320010c0b300004f7800cc
:1032a4001e4078000080fa00000006000400fa00c6
:1032b400100798000040eb00004f78009e0090003b
:1032c40000082000008060000000e00002003200de
:1032d40010c0b300004f78001e4078000080fa0050
:1032e400000006000400fa00100798000040eb00fc
:1032f400004f78009e0090000004200000806000d1
:103304000000e0000200320010c0b300004f78005b
:103314001e4078000080fa00000006000400fa0055
:10332400100798000040eb00004f78001e0090004a
:10333400700060000000e0000200320010c0b30022
:10334400004f78001e4078000080fa00000006005c
:103354000200fa00000f78009e80ea00003a800024
:1033640000806000003a88000080fa000000060037
:103374000000fa004027ef000080fa000000060079
:020000040000fa
:10338400001000000200000080000000ca110000cc
:103394002000000080000000021000000200000075
:1033a40082000000ffff00006411000040000000e4
:1033b40082000000286e75006c6c2900003031001a
:1033c40032333400353637003839610062636400c3
:1033d4006566000001000000000a000000006400af
:1033e40000000000e8030000001027000000a00017
:1033f4008601000040420f00008096009800000003
:10340400e1f5050000ca9a003b000000a411000089
:103414002600000082000000eb11000000eb110008
:103424000900000000020000ed11000000ed110091
:103434000e02010000000000000000000000000077
:103444000602020000000000a4110000ea110000be
:10345400060000008000000004100000600100006d
:10346400820000000000000000000000f03f0000a7
:1034740000000000000024004000000000000000e4
:103484000059400000000000000040008f40000090
:10349400000000000088c30040000000000000009d
:1034a4006af8400000000000008084002e41000003
:1034b40000000000d01263004100000000008400fe
:1034c400d7974100000000000065cd00cd41000009
:1034d400000020005fa0020042408c00b5781d006f
:1034e400af154400ea8ca00039593e002946a500d6
:1034f4005cc3f10029633d00489a64007ec50e0058
:103504001b514a0044f3c200e4e4e900634c3d006b
:10351400c7ddd600ba2e77004e5ffb00f051ef00f6
:10352400fc8a5000c7592900090f6b009f527d0087
:10353400c3942500ad49b200545a6200d7d718008d
:10354400e77469009c750000883ce400377e000045
:10355400000000000000f0003f9a9900999999003a
:1035640099b93f007b14ae0047e17a00843ffc0028
:10357400a9f1d2004d6250003f2d43001cebe20044
:10358400361a3f00f168e30088b5f800e43e8d0088
:10359400edb5a000f7c6b0003e48af00bc9af200fb
:1035a400d77a3e003a8c3000e28e7900453e950091
:1035b400d626e8000b2e11003ebbbd00d7d9df0094
:1035c4007cdb3d00234292000ca19c00c73ba00081
:1035d400c2ebfe004b48b400399c57007727260005
:1035e4006ca137001fb8d4004a7aee008d3526004e
:1035f400a6acaa0004b67900339d35008f1de900fe
:103604001566310023614d0017acf800522f6f008e
:103614000e998400d94b40002d3005008ee42e0015
:10362400ff2b2b00acf74e0015927e006816590054
:10363400f3f8c2001f6ea5000100000000000000a6
:020000040000fa
:103644002400fa00a5fe0700000020004128240001
:10365400008fbe0000002000011024002007980005
:103664003107980000002000111e24004007980034
:10367400510798002001070001eca8000070280001
:1036840031392000330107000118800061079800d8
:10369400111880007107980021188000010f98000c
:1036a40031188000110f98006e0090008000eb002c
:1036b40057fc070002002000034824005bfb0700be
:1036c40032332300330524003afd070022852b0002
:1036d400e301240093fa07002e019000be0190003c
:1036e40034fd0700200f9800310f98007e009000f1
:1036f4008000eb0046fc0700020020000348240081
:103704004afb0700323323003305240029fd070058
:1037140022852b00e301240082fa07002e01900089
:10372400be01900023fd0700400f9800510f980040
:103734000e0890008000eb0035fc0700020020001a
:103744000348240039fb07003233230033052400e7
:1037540018fd07001e0178009e01900015fd07006a
:10376400600f9800710f98001e0890008000eb0015
:1037740027fc070002002000034824002bfb07005d
:1037840032332300330524000afd07004e01900064
:10379400de01900007fd070000179800111798003c
:1037a4002e089000be089000809fbe002081290052
:1037b400801f7800dbf30700e68757004e0890006f
:1037c400de089000809fbe0010822900801f7800d0
:1037d400d4f30700e68757006e089000fe089000b7
:1037e400809fbe0000832900801f7800cdf307006e
:1037f400e68757000e1090009e109000809fbe0038
:1038040000842900801f7800c6f30700e68757006c
:103814009aff37000a00fa0000f925001100200081
:10382400008fbe001e0078009e009000f8fb070089
:1038340082eb210053f82300defc07000001be00e8
:1038440080b22600e1e62400f8fa07002007980079
:10385400310798002e009000be009000cffb0700b7
:1038640040079800002cef00022cef00062cef001c
:1038740000192000206088003000200020618800aa
:10388400300020002062880030002000206388007f
:10389400222cef0023aca90011618000f03f2f001f
:1038a4000080600010618800422cef0043aca90046
:1038b40011628000f03f2f000080600010628800d9
:1038c400622cef0063eca80063cca80063aca900f1
:1038d40011638000f03f2f000080600010638800b7
:1038e400212ca900210ca90001618000f0f32f0014
:1038f4000080600000618800200ca900412ca90010
:10390400410ca90001628000f0f32f0000806000e8
:1039140000628800400ca900612ca900610ca90078
:1039240001638000f0f32f000080600000638800d2
:10393400600ca900800c200030618800800c2000fd
:1039440030628800800c200030638800282cef004f
:10395400482cef00682cef005000200050618800d4
:1039640050002000506288005000200050638800fe
:1039740050002000606188005000200060628800d0
:1039840050002000606388000080fa0000000600f8
:103994000000fa00042eef0000122000a07088003e
:1039a400f001200000708800f02d20008070880055
:1039b4000c2eef001c2eef000a2eef001a2eef0043
:1039c400062eef00162eef003001200070708800e4
:1039d40030102000f0708800113a8000f00b2000b5
:1039e4000081600060042000710520002374200021
:1039f4008049780081497800824978002136800026
:103a040000f82f0080806000900220000100700008
:103a1400203688003134800000fc2f0000806000d4
:103a24000000a00030348800103a800000017800c3
:103a34000260a000600420007105200023742000af
:103a44008049780081497800824978000080fa0032
:103a5400000006000000fa00800020000011880029
:103a64002222ef00703120004011880021e2a800da
:103a74002342a8000080fa00000006000000fa00bb
:103a84000000000010118000610060000000e000f0
:103a9400fcff320010118000620060000000e000b2
:103aa400010032002222a900301180000040780079
:103ab4000080fa00000006000200fa00004f7800bf
:103ac4000000000011118000002020000080600030
:103ad4000000e000fbff3a001e80fb00201188007c
:103ae4000080fa00000006000000fa0010118000b7
:103af4000080fa00000006000000fa00c00e290051
:103b0400001988000020200010198800e0ff21001f
:103b1400201988003223ef0030302000401988003b
:103b24002e23ef003023ef002623ef00101980002e
:103b34004200de007f40600000f0b7000080fa0021
:103b4400000006000000fa0001a8a9000080fa00a5
:043b54000000060067
:020000040000fa
:103b5800f03fb1000180b10006003500ee03090016
:103b680000000000403fb1000180b100fbff3d00b4
:103b78001000b000203fb0000200350000800900ae
:083b880000000000000006002f
:020000040000fa
:103b9000000f78009e00780011808800ffff37003a
:103ba0000000fa00a01c210080077800201e2100e0
:103bb000000188000080fa00000006000000fa0002
:083bc0000080fa00000006007d
:020000040000fa
:020000040005f5
:045fe000cfff0000ef
:020000040000fa
:020000040005f5
:045fe400cfff0000eb
:020000040000fa
:020000040005f5
:045fe8007fff000037
:020000040000fa
:020000040005f5
:045fec00bfff0000f3
:020000040000fa
:020000040005f5
:045ff000b9ff0000f5
:020000040000fa
:020000040005f5
:045ff400ffff0000ab
:00000001FF
